:020000040800F2
:10000000004001205D060008A9060008A9060008B6
:10001000A9060008A9060008A906000800000000BB
:10002000000000000000000000000000A906000819
:10003000A906000800000000A9060008A90600089B
:10004000A9060008A9060008A9060008A9060008D4
:10005000A9060008A9060008A9060008A9060008C4
:10006000A9060008A9060008A9060008A9060008B4
:10007000A9060008A9060008A9060008A9060008A4
:10008000A9060008A9060008A9060008A906000894
:10009000A9060008A9060008A9060008A906000884
:1000A000A9060008A9060008A9060008A906000874
:1000B000A9060008A9060008A9060008A906000864
:1000C000A9060008A9060008A9060008A906000854
:1000D000A9060008A9060008A9060008A906000844
:1000E000A9060008A9060008A9060008A906000834
:1000F000A906000800000000A9060008A9060008DB
:10010000A9060008A9060008A9060008A906000813
:10011000A9060008A9060008A906000800000000BA
:10012000A906000800000000000000000000000018
:1001300000000000000000005FF808F110B5054C59
:10014000237833B9044B13B10448AFF30080012383
:10015000237010BDC401002000000000D459000825
:10016000084B10B51BB108480849AFF30080084898
:10017000036803B910BD074B002BFBD0BDE810404E
:10018000184700BF00000000D4590008C801002033
:10019000C001002000000000154B002B08BF134BCE
:1001A0009D46A3F5803A00218B460F461348144A1A
:1001B000121A03F070FB0F4B002B00D098470E4B28
:1001C000002B00D098470020002104000D000D48AE
:1001D000002802D00C48AFF3008003F0D1FA2000D1
:1001E000290000F005FA02F04DFF00BF00000800F2
:1001F000004001200000000000000000C4010020B9
:10020000F8050020000000000000000008B572B6EC
:10021000962002F04DFA962002F04AFAF8E700BF65
:100220000F4B30B49D689A682B46B2F1006F04D032
:1002300030BC103043F8201070470A4A05F592751B
:1002400053F8044BAB4242F8044FF9D14FF000523F
:100250001346034C1030A26043F8201030BC7047A6
:1002600000ED00E0FCFFFF1F70B50F4C2368DA685B
:10027000910715D4DA68520709D56FF004020B4EC6
:100280001A615D6A3368EB1AB3F57A7F00D270BDEC
:1002900000F024FA236805F57A7235609A6370BD20
:1002A00002F07CF92368E5E764050020E001002006
:1002B00038B5204B204C5A6A002542F008025A6299
:1002C0009A6942F008029A619A6922F008029A61DA
:1002D00001F066F9194B1A4A1B681A49A2FB03235D
:1002E0009B0C013B4FF0FF32204684E80A00E2609D
:1002F0002561A56001F03EF82E201349FFF790FF1D
:10030000124B4FF480425A602946204601F04AF8C9
:100310002046042101F046F823680D4C596A28460E
:1003200001F57A729A63DA68216042F00402DA60B9
:1003300038BD00BF003802406405002044010020A1
:1003400083DE1B43000C00406902000800E100E06E
:10035000E001002001F024B9036870B51B69002199
:10036000012204469847431C06460ED023682046C7
:100370001B690021022298472368054631461B6904
:10038000204600229847284670BD70BD02480221D1
:10039000032201F099BD00BFD8050020084A094B8F
:1003A00010B4026003F58071002453F8042F8242D8
:1003B00008BF1C608B42F8D15DF8044B704700BF4A
:1003C00018530008E0010020F0B50E4685B036490C
:1003D000054604F06CF920B9344B1B6863B105B0D5
:1003E000F0BD2846324904F062F978B92F4B1B68FA
:1003F00043B1012005B0F0BD0190FFF7C7FF0198A0
:1004000005B0F0BDFFF7C2FF0120E8E72846294903
:1004100004F04DF910B3284B002402E00134402CC5
:1004200021D053F8042F002AF8D12B783A2B33D05F
:10043000294602A801F07AFE02A801F0CDFE90B193
:1004400002A801F0AFFE88B102A801F0B5FE034694
:100450004BB11A4AE01C42F82430C0E7134B1B682A
:10046000B3B10220BBE74FF0FF30B8E702A801F0BC
:1004700089FE05460028F6D0036802A89F6801F0AF
:100480007FFE26F4803201462846B8470346DFE760
:10049000FFF77CFF0220A2E72846094902AA04F0E0
:1004A00097F8029BD4E700BFF4520008F80400203C
:1004B00004530008FC520008E0010020E401002081
:1004C0003C53000802280ADD074AC31E52F82300E5
:1004D000002142F8231020B103685B681847002010
:1004E00070474FF0FF307047E4010020022812DC13
:1004F0000E4B70B51B680C4616460BB9FFF746FF4E
:10050000A51936B114F8011B094801F003FEAC42ED
:10051000F8D1304670BD074B033853F8200010B1B6
:1005200003681B6818474FF0FF307047F80400203D
:10053000D8050020E401002002280DDC0C4B10B58A
:100540001B680C460BB9FFF721FF0A4801F0D6FDE6
:1005500001232070184610BD074B033853F82000C4
:1005600010B103689B6818474FF0FF331846704777
:10057000F8040020D8050020E4010020022807DD4F
:10058000064B033853F8200020B10368DB68184796
:10059000012070474FF0FF30704700BFE40100209A
:1005A000022807DD064B033853F8200020B103680A
:1005B0001B691847002070474FF0FF30704700BF9D
:1005C000E4010020022808B504D84FF400534B6022
:1005D000002008BD02F050FD092303604FF0FF30FA
:1005E00008BD00BF08B5012002F04CFD704700BFF8
:1005F00008B5FFF7AFFEFFF7F9FFBDE8084001F0CF
:1006000025B900BF074A13681918EFF30880814223
:1006100002D2184611607047034B0C221A604FF04B
:10062000FF30704740010020F40500200546074CCC
:1006300008B52368986802F041FE2368D86802F084
:100640003DFE05B9FEE7FFF7E1FDFBE7A80100204D
:10065000002103F008BF00BF02F06EBE0C488546C3
:10066000002103E00B4B5B58435004310A480B4B0D
:1006700042189A42F6D30A4A02E0002342F8043BA9
:10068000084B9A42F9D301F06FF8FFF785FDFEE7BA
:1006900000400120085A00083C010020C40100204D
:1006A000C4010020F8050020FEE70000704700BFED
:1006B00008B5094B03201A6842F004021A601A6850
:1006C00042F002021A6000F017F80F20FFF7F0FD69
:1006D000FFF7ECFF002008BD003C0240024A13680F
:1006E00001331360704700BFE4020020014B18681B
:1006F000704700BFE40200204FF6FF02064900F0F9
:100700000700CB681A4042F0BF6343F4003343EA6A
:100710000023CB60704700BF00ED00E02DE9F04FF3
:10072000DFF8D8C1D1F80080DFF8D491002303E0CE
:100730000133102B00F0858001229A4002EA080460
:100740009442F5D14D685F0025F0100E0322BA40A7
:10075000BEF1020F6FEA020275D0D0F800A005F0DA
:10076000030602EA0A0ABE400EF1FF3E4AEA060606
:10077000BEF1010F066040F28680C66832408E6886
:10078000BE401643EA00C660D2D5D9F8206023F0F7
:10079000030246F0010602F18042C9F8206002F52A
:1007A000803203F0030E97684FEA8E0E0F2606FA8A
:1007B0000EF627EA06074A4EB04277D006F5806665
:1007C000B04275D0474EB04276D0474EB04277D057
:1007D000464EB04278D0464EB04279D0454EB042F7
:1007E0007AD0454EB0420CBF0726082606FA0EF610
:1007F0003E439660E643DCF80020EF034CBF224303
:100800003240CCF80020DCF80420AF034CBF224378
:100810003240CCF80420DCF80820EF024CBF224321
:100820003240CCF80820DCF80C20AD0203F10103C3
:1008300054BF06EA02041443102BCCF80C407FF49A
:100840007BAFBDE8F08F4FEAD30E00EB8E0E03F0C6
:10085000070BDEF820A04FEA8B0B0F2606FA0BF6EB
:100860002AEA060A0E6906FA0BF64AEA0606CEF8E6
:100870002060D0F800E005F0030602EA0E0EBE404C
:100880004EEA06060660866802EA060ECE68BE409C
:100890004EEA06068660D0F804E0C5F300162EEA9C
:1008A000040E9E404EEA0606466066E700269FE775
:1008B000012606FA0EF69BE7022606FA0EF697E7E1
:1008C000032606FA0EF693E7042606FA0EF68FE7DD
:1008D000052606FA0EF68BE7062606FA0EF687E7D9
:1008E0000000024000080240000C024000100240DC
:1008F00000180240001C02400014024000040140A5
:1009000000380240F8B503680446DE074BD5C249FB
:100910008A6802F00C02082A00F036818A6802F028
:100920000C020C2A00F02C81BC4B00221A70FFF73D
:10093000DDFE4FF400370646B74D05E0FFF7D6FE63
:10094000801BC82800F2B58197FAA7F32A6897FAA6
:10095000A7F3B3FA83F303F01F0322FA03F3D907D3
:10096000ECD4AE4B22791A706368002B00F05682EB
:10097000FFF7BCFE4FF400370646A74D05E0FFF732
:10098000B5FE801BC82800F2948197FAA7F32A6865
:1009900097FAA7F3B3FA83F303F01F0322FA03F3E2
:1009A000DA07ECD52368980743D59B498A6802F09B
:1009B0000C02042A00F0EB818A6802F00C020C2A77
:1009C00000F0E181E268002A00F0B881012292FA89
:1009D000A2F3B3FA83F39B0003F1844303F58E0380
:1009E0001A60FFF783FE022706468B4D05E0FFF7EE
:1009F0007DFE801B642800F25C8197FAA7F386498C
:100A00002A6897FAA7F3B3FA83F303F01F0322FAD5
:100A100003F3DB07EBD54A684FF4F85090FAA0F0E7
:100A2000B0FA80F0236922F4F852834013434B60FC
:100A30002368D9065ED4190725D56269002A00F01B
:100A40005C81012292FAA2F3B3FA83F3744902277C
:100A500041F82320FFF74AFE6F4D064605E0FFF7F9
:100A600045FE801B642800F2248197FAA7F36A6B85
:100A700097FAA7F3B3FA83F303F01F0322FA03F301
:100A8000DA07ECD52368580700F19580636A7BB3D9
:100A9000614DAA6802F00C020C2A00F08A80022B39
:100AA0004FF0807300F0D58193FAA3F3B3FA83F388
:100AB0009B0003F1844303F58E0300221A60FFF7C5
:100AC00015FE4FF00074064605E0FFF70FFE801B91
:100AD000642800F2EE8094FAA4F32A6894FAA4F34E
:100AE000B3FA83F303F01F0322FA03F3DB07ECD41A
:100AF0000020F8BD484D226A696821F460410A432C
:100B00006A60AA6812F00C0F00F0D580A2694FF459
:100B10008073002A00F05D8193FAA3F3B3FA83F3A4
:100B20009B0003F1844303F58E0301221A60FFF753
:100B3000DDFD4FF40077064605E0FFF7D7FD801B8B
:100B4000642800F2B68097FAA7F333492A6897FA27
:100B5000A7F3B3FA83F303F01F0322FA03F3DB07CF
:100B6000EBD54A684FF07F4090FAA0F0B0FA80F0E1
:100B7000E36922F07F42834013434B6023685AE7C6
:100B80008A68D5037FF5D0AE4FF4003292FAA2F115
:100B90002149096892FAA2F2B2FA82F202F01F0227
:100BA00021FA02F2D0077FF5FEAE6268012A3FF417
:100BB000FAAE0120F8BD18491A4B4A6A1D4642F0A8
:100BC00080524A621A6842F480721A60FFF78EFD02
:100BD000064604E0FFF78AFD801B642869D82B686D
:100BE000D905F7D54FF4807393FAA3F3B3FA83F3DF
:100BF0000B4A002142F823104FF4806393FAA3F3C9
:100C0000B3FA83F342F82310FFF770FD4FF4007737
:100C10000646014D0DE000BF003802400238024098
:100C20008006474200700040FFF760FD801B64288B
:100C30003FD897FAA7F36A6B97FAA7F3B3FA83F34F
:100C400003F01F0322FA03F313F00103ECD1A268AF
:100C5000002A40F055814FF4807191FAA1F1B1FA68
:100C600081F1C8484FF4806340F8212093FAA3F340
:100C7000B3FA83F340F82320A368012B00F05581D9
:100C8000FFF734FD0646C04D4FF4007797FAA7F3FF
:100C90006A6B97FAA7F3B3FA83F303F01F0322FA00
:100CA00003F3DB077FF5F2AEFFF720FD801B64281E
:100CB000ECD90320F8BD4FF4007292FAA2F1296832
:100CC00092FAA2F2B2FA82F202F01F0221FA02F2C2
:100CD000D20703D5A269012A7FF46BAFAA4D4FF06A
:100CE0007F40696890FAA0F0B0FA80F0E26921F0E4
:100CF0007F4182400A436A609DE6012393FAA3F391
:100D0000B3FA83F39F49022741F82320FFF7EEFC53
:100D10009D4D064604E0FFF7E9FC801B6428C8D817
:100D200097FAA7F36A6B97FAA7F3B3FA83F303F082
:100D30001F0322FA03F3DB07EDD4A3E6012393FAA2
:100D4000A3F3B3FA83F39B0003F1844303F58E030B
:100D50001A60FFF7CBFC022706468B4D04E0FFF735
:100D6000C5FC801B6428A4D897FAA7F32A6897FAD1
:100D7000A7F3B3FA83F303F01F0322FA03F3D807B0
:100D8000EDD4236855E68A68D1033FF51BAE0222F5
:100D900092FAA2F17C49096892FAA2F2B2FA82F2BE
:100DA00002F01F0221FA02F2D20703D5E268012AFB
:100DB0007FF4FFAE744D4FF4F850696890FAA0F0DC
:100DC000B0FA80F0226921F4F85182400A436A6047
:100DD0002FE693FAA3F3B3FA83F39B0003F1844362
:100DE00003F58E031A60FFF781FC4FF40077064687
:100DF00005E0FFF77BFC801B64283FF65AAF97FAAB
:100E0000A7F32A6897FAA7F3B3FA83F303F01F0353
:100E100022FA03F3D807ECD423680CE6FFF766FC4C
:100E20004FF400370646584D05E0FFF75FFC801B86
:100E3000C8283FF63EAF97FAA7F32A6897FAA7F3B8
:100E4000B3FA83F303F01F0322FA03F3DB07ECD4B6
:100E5000A8E593FAA3F3B3FA83F39B0003F1844369
:100E600003F58E0300221A60FFF740FC4FF0007775
:100E7000064605E0FFF73AFC801B64283FF619AFF1
:100E800097FAA7F340492A6897FAA7F3B3FA83F3CE
:100E900003F01F0322FA03F3D807EBD4E56AA06A34
:100EA000226B8B682843024323F47D0313438B603A
:100EB0004FF0807393FAA3F3B3FA83F39B0003F12B
:100EC000844303F58E0301221A600C46FFF70EFCE3
:100ED0004FF00075064605E0FFF708FC801B64280C
:100EE0003FF6E7AE95FAA5F3226895FAA5F3B3FAB3
:100EF00083F303F01F0322FA03F3DA07ECD5F7E5D7
:100F0000012A2CD04FF4807191FAA1F1B1FA81F14C
:100F10001C484FF4806240F8213092FAA2F3B3FAF1
:100F200083F3012240F82320A6E6FFF7DFFB064605
:100F3000154D4FF4007797FAA7F36A6B97FAA7F36A
:100F4000B3FA83F303F01F0322FA03F3DA073FF542
:100F50009DADFFF7CBFB801B6428ECD9A9E64FF4CD
:100F6000806090FAA0F0B0FA80F0064D4FF48071E6
:100F700045F8203091FAA1F3B3FA83F345F8232022
:100F80007AE600BF8006474200380240944A2DE9C5
:100F9000F04113680C4603F001038B4205460BD267
:100FA000012900F081801168012021F001010C432A
:100FB00014601368BDE8F08103689E0706D5894870
:100FC000AA68816821F0F0010A438260D80711D431
:100FD000012C00F0D580824A136823F001032343DB
:100FE0001360136803F00103A34200F0A9800120FD
:100FF000BDE8F0816B68022B00F0BC80032B00F091
:10100000C580012B0CBF02224FF4007292FAA2F1AC
:101010007449096892FAA2F2B2FA82F202F01F024F
:1010200021FA02F2D107E2D56E4E41F28838B26859
:1010300022F003021343B360FFF758FB6B680746C7
:10104000022B15D0032B1ED0012B06D126E0FFF773
:101050004DFBC01B404500F29080B36813F00C0FAD
:10106000F5D1B5E7FFF742FBC01B404500F2858094
:10107000B36803F00C03082BF4D1A9E7FFF736FBA4
:10108000C01B404579D8B36803F00C030C2BF5D195
:101090009EE7FFF72BFBC01B40456ED8B36803F0FB
:1010A0000C03042BF5D193E7136843F0040313609A
:1010B000136843F0010313601368D80797D52B68B2
:1010C000990706D54748AA68816821F0F0010A43CC
:1010D0008260DA0735D56B68022B7ED0032B79D07E
:1010E000012B0CBF02224FF4007292FAA2F13D498B
:1010F000096892FAA2F2B2FA82F202F01F0221FA11
:1011000002F2D7077FF573AF364C41F28837A268F9
:1011100022F003021343A360FFF7E8FA6B68064668
:10112000022B3BD0032B44D0012B05D14CE0FFF721
:10113000DDFA801BB84220D8A36813F00C0FF6D15B
:101140002B685A0706D52748EA68816821F4E061D0
:101150000A4382601B0707D5224A2969936823F452
:10116000605343EAC10393600F20FFF7A1F800200A
:10117000BDE8F0814FF4003248E70320BDE8F0817C
:10118000174A136843F00403136024E74FF000721A
:101190003CE7FFF7ABFA801BB842EED8A36803F038
:1011A0000C03082BF5D1CBE7FFF7A0FA801BB84260
:1011B000E3D8A36803F00C030C2BF5D1C0E7FFF7CD
:1011C00095FA801BB842D8D8A36803F00C03042B0F
:1011D000F5D1B5E74FF0007287E74FF4003284E7AE
:1011E000003C02400038024020498B6803F00C02AA
:1011F000082A38D00C2A12D0042A0ED04B684FF49B
:10120000604292FAA2F2B2FA82F203F46043D3404F
:1012100001334FF40040984070471548704710B4B0
:101220004FF4701292FAA2F2B2FA82F203F4701042
:10123000104C20FA02F2A05C4FF4400292FAA2F2A3
:10124000B2FA82F20C4C03F44003D340E35C8968A9
:10125000B0FBF3F0CB034CBF084B054B5DF8044BE0
:1012600003FB00F070470548704700BF003802409C
:101270000024F4004C5300086853000800127A0060
:1012800008B5FFF7B1FF084BF0229B6892FAA2F273
:10129000B2FA82F2054903F0F003D340CA5C044B72
:1012A000D040186008BD00BF003802405853000805
:1012B0004401002008B5FFF7E3FF074B4FF4E0625D
:1012C0009B6892FAA2F2B2FA82F2044903F4E06354
:1012D000D340CB5CD84008BD0038024058530008CA
:1012E00008B5FFF7CDFF074B4FF460529B6892FAA9
:1012F000A2F2B2FA82F2044903F46053D340CB5C09
:10130000D84008BD0038024058530008B0F1804F63
:1013100010B4036817D0154A904214D002F58062C9
:10132000904210D002F5806290420CD002F57C42CF
:10133000904208D002F58062904208D002F58062A7
:10134000904208D103E04A6823F070031343CA684F
:1013500023F4407313438C68096801220360C4625C
:1013600081625DF8044B4261704700BF0004004099
:10137000704700BFA0B190F8353010B5044663B196
:101380002146022351F8040B84F83530FFF7BEFFE5
:10139000012384F83530002010BDFFF7E9FFEFE7A7
:1013A00001207047036801228A40196A90B221EA3D
:1013B00000011962196A00200A431A621A6842F091
:1013C00001021A60704700BF2DE9F041064605682A
:1013D000C0682C69376924F4405420432861B168FF
:1013E000EB687269F069394323F416430A430243F8
:1013F00023F00C031343EB606A69B36922F4407273
:101400001343B0F5004F6B614C4B34D09D4256D026
:10141000FFF750FF746800EB800000EB8000A40031
:10142000B0FBF4F4FFF746FF454F7268A7FB0434A6
:1014300000EB8000640900EB800092002401B0FB07
:10144000F2F8FFF737FF716800EB800000EB8000D7
:101450008900B0FBF1F1A7FB01316422490902FBCD
:10146000118212013232A7FB0223C3F34313234339
:10147000AB60BDE8F0819D423DD0FFF71BFF746873
:1014800000EB800000EB80006400B0FBF4F4FFF799
:1014900011FF726800EB800000EB80005200B0FB8F
:1014A000F2F8FFF707FF264F7168A7FB043400EB43
:1014B00080006409240100EB80004900C9E7FFF7C0
:1014C0000FFF746800EB800000EB8000A400B0FB0D
:1014D000F4F4FFF705FF1A4F7268A7FB043400EB22
:1014E00080009200640900EB80002401B0FBF2F858
:1014F000FFF7F6FEA7E7FFF7F3FE746800EB800046
:1015000000EB80006400B0FBF4F4FFF7E9FE0C4F41
:1015100000EB8000A7FB0434736800EB80005A00E6
:10152000B0FBF2F8FFF7DCFE7168640900EB8000A5
:10153000240100EB800049008BE700BF0038014028
:101540001F85EB51704700BF38B338B590F839307C
:101550000446FBB12268022384F83930D368204660
:1015600023F40053D360FFF72FFF236800211A698B
:10157000012522F490421A615A69084622F02A0293
:101580005A61DA6842F40052DA6084F83A1084F85A
:10159000395038BDFFF7D6FFDCE70120704700BFA8
:1015A0001C4B9B6803F00C030C2B08D8DFE803F0FE
:1015B00007070707190707071B0707071D00154A35
:1015C0004FF400435268C2F3423201329340114A51
:1015D000114892681149C2F30312825CD3400B6038
:1015E00070470F4BF3E70F4BF1E70A490E488A6843
:1015F0008B688968C3F38153C2F38342805C5A1CB1
:10160000CB0355BF064B0749434301FB00F3B3FB34
:10161000F2F3DCE7003802406C530008440100207C
:101620000024F40000127A007C530008022393FA8D
:10163000A3F224490A6893FAA3F3B3FA83F303F0FD
:101640001F0322FA03F3DB0729D44B6A30B51E4A85
:1016500043F080534B62136893B023F4C0530321CB
:1016600043F4006313600591B0B1052306934FF472
:1016700080034FF480314FF400220024022505A896
:10168000119308940E950F911092FFF73BF90346C2
:1016900038B1204613B030BD01230693E7E70020A0
:1016A000704703220F246846012102930393049399
:1016B00000940192FFF76AFCB0FA80F0400913B081
:1016C00030BD00BF00380240007000401C4AF0B539
:1016D000536A1C4C43F080535362236893B023F445
:1016E000C05343F400632360002503270126022131
:1016F0004FF480224FF4800305A8059706950F95B7
:1017000008960E9110921193FFF7FCF8A0B92246AB
:10171000536813F01003FBD103220F246846012104
:1017200002930393049300940192FFF72FFCB0FA05
:1017300080F0400913B0F0BD284613B0F0BD00BFE3
:10174000003802400070004008B50120FFF76EFF2E
:1017500000B108BDFFF76AFF0028FAD1FFF7B6FF16
:101760000028F6D1FEE700BF70B5164C164B226874
:10177000164842F480722260A26815491340A360A3
:101780002368144A23F0885323F00113236023684D
:10179000002623F480232360A3684FF0006523F420
:1017A0007D03A360E66085601160FEF781FFFFF7AF
:1017B000CBFFA36943F00803A361A36923F00803E7
:1017C000A36170BD003802400CC0FF8800ED00E04E
:1017D0000024F400440100207047000010B50446C6
:1017E000064B543003F1180240F8543C4C3302606D
:1017F000436000F0D3FD204610BD00BF88550008AF
:10180000A0F15400FFF7EABFA0F15800FFF7E6BFD0
:1018100010B5044603F060FD204610BD10B5044627
:10182000044B036000F010FE204600F039FE204615
:1018300010BD00BF4056000810B50446FFF7EEFF8C
:10184000204603F049FD204610BD000006484FF435
:101850007A3108B500F01EFD00F046F8034804494F
:1018600000F0C4FDFEE700BFE80200203C030020BA
:101870008953000810B50446FFF7B0FF204603F077
:101880002BFD204610BDA0F15400F3E7A0F1580055
:10189000F0E7000070B50E4C0025204600F0ECFD8E
:1018A0000C4B0D4E2360A561E56220460B4C324681
:1018B0000B4901F0CDFB2046022103222B4600F00C
:1018C0009DFC20463246BDE87040064901F0C0BB91
:1018D00054030020405600083C010020E80200208C
:1018E0001D180008DD17000870B5164D4FF4E131E2
:1018F000284600F0CFFC144E00222846134900F081
:10190000D1FC05F15404012000F0D2FE31462046FE
:1019100000F056FD3146204600F052FD314620468B
:1019200000F04EFD28464FF4165100F0B3FC20465F
:10193000074900F045FD2046BDE87040054900F02C
:101940003FBD00BF88030020A7530008391C0008D2
:10195000BA530008CD5300082DE9F04FC579037A3A
:101960004FF00A0A303B303D0AFB053590F809B0CC
:10197000837AABF1300B303B0AFB0B3B90F80BC08A
:10198000037BACF1300C303B0AFB0C3C0446007C82
:1019900087B030380AFB00F0CDF814C001F0B8F879
:1019A0000646607C0F46303801F0B2F802460B461E
:1019B0003046394600F060FF0646A07C0F463038BE
:1019C00001F0A6F88CA3D3E9002301F007F9024641
:1019D0000B463046394600F04FFF0646E07C0F4686
:1019E000303801F095F886A3D3E9002301F0F6F82A
:1019F00002460B463046394600F03EFF0646607D03
:101A00000F46303801F084F87FA3D3E9002301F0BA
:101A1000E5F802460B463046394600F02DFF0646F3
:101A2000A07D0F46303801F073F879A3D3E9002385
:101A300001F0D4F802460B463046394600F01CFF50
:101A40000646E07D0F46303801F062F872A3D3E914
:101A5000002301F0C3F802460B463046394600F039
:101A60000BFF0646207E0F46303801F051F86CA37C
:101A7000D3E9002301F0B2F802460B46304639465E
:101A800000F0FAFEA37E80460493237F6420303B5F
:101A90005843894601F03CF80646607F0F463038CF
:101AA0000AFB00F001F034F802460B463046394696
:101AB00000F0E2FE0646A07F0F46303801F028F81D
:101AC00002460B463046394600F0D6FE0646E07F19
:101AD0000F46303801F01CF847A3D3E9002301F08A
:101AE0007DF802460B463046394600F0C5FE0646F4
:101AF00094F820000F46303801F00AF840A3D3E9EB
:101B0000002301F06BF802460B463046394600F0E0
:101B1000B3FE064694F822000F46303800F0F8FF76
:101B200039A3D3E9002301F059F802460B463046A9
:101B3000394600F0A1FE064694F823000F463038DF
:101B400000F0E6FF32A3D3E9002301F047F8024694
:101B50000B463046394600F08FFE064694F82400C6
:101B60000F46303800F0D4FF2BA3D3E9002301F057
:101B700035F802460B463046394600F07DFE0646F3
:101B800094F825000F46303800F0C2FF24A3D3E9B3
:101B9000002301F023F802460B463046394600F098
:101BA0006BFE06460F462248214694F827A002F015
:101BB00045FB1DA3D3E900234046494601F00EF83A
:101BC00001F01EFA049B00900193304616A3D3E95E
:101BD0000023394601F002F801F012FADDF814C0D2
:101BE0000290CDF80CA029465A466346114802F0EF
:101BF00025FB07B0BDE8F08F9A9999999999B93F5B
:101C00007B14AE47E17A843FFCA9F1D24D62503F8C
:101C10002D431CEBE2361A3FF168E388B5F8E43E49
:101C20008DEDB5A0F7C6B03E0000000080842E41C7
:101C3000015400080B54000808B5104800F0CCFB14
:101C40000F4BC2B219680F480A2A425403D01A68CF
:101C500001321A6008BD0022C1781A600A4B0122C5
:101C600052291A700279437907D14D2A05D1432BA5
:101C700003D1BDE80840FFF76FBE08BDDC030020BC
:101C800084030020F4030020F404002010B5074C66
:101C90002A2120462B22002300F0B0FA2046BDE87E
:101CA00010400349034A01F0D3B900BF8803002064
:101CB000DD1700083C01002008B5072828D8DFE818
:101CC00000F00B12192027272704144A1448D3695F
:101CD00043F02003D36108BD104A1248D36943F092
:101CE0000103D36108BD0D4A0F48D36943F00203D5
:101CF000D36108BD094A0D48D36943F00403D36199
:101D000008BD064A0A48D36943F00803D36108BDF9
:101D1000084800F0DDFB002008BD00BF003802408D
:101D2000001402400000024000040240000802408B
:101D3000000C02406054000870B5431C86B0054694
:101D40000C461BD0C5F30310FFF7B6FF0E4A04F094
:101D50000F0152F8212005F00F050123AB40C4F319
:101D600002160325C4F3C31401A90193029203963A
:101D700005940495FEF7D2FC06B070BD03480449F3
:101D8000592200F069FBDDE72C5400088454000858
:101D90009854000838B5431C04460D4614D0C4F3CB
:101DA0000310FFF789FF04F00F04C26864000323E7
:101DB000A34022EA0303C360022DC3688CBF002541
:101DC000A5401D43C56038BD024803497E2200F08E
:101DD00043FBE4E78454000898540008F0B4114B26
:101DE000046990F9192007688668C568DC60446951
:101DF000002101321F605E609D601C6199610AD004
:101E0000F0BC90F91820074801320CBF04220C22C4
:101E10005A61FFF799BB08220248F0BC5A61FFF7EC
:101E200093BB00BF9C05002070B5154D154C55F8AF
:101E300021300E46206053B10268510613D4036866
:101E40009A0605D403681B0744BF0368436870BD46
:101E50000D4B55F826001B680021984720686FF04D
:101E600020030360EEE7084A1846012113689847EB
:101E700020686FF04003036003689A06E2D5E7E745
:101E8000FC0400209C0500201005002001480021D2
:101E9000FFF7CABF0038014001480121FFF7C4BF66
:101EA0000044004001480221FFF7BEBF0048004047
:101EB00001480321FFF7B8BF004C0040014804214E
:101EC000FFF7B2BF00500040F8B504460E46084682
:101ED0003D49154600F042FB3C490746284600F0C4
:101EE0003DFB0146384600F027FB411C206059D0DD
:101EF000374B984239D0374B98422ED0364B9842C8
:101F000045D1364A0221536A43F48023536261600B
:101F100030462D4900F0EEFA28462C4900F0EAFA46
:101F2000721C03D030460121FFF734FF6B1C03D035
:101F300028460121FFF72EFF00234FF41652A2601E
:101F4000E36023616361267665762046FFF746FFEE
:101F5000204B22689A4210D0F8BD204A0121536AD2
:101F600043F4003353626160D2E71C4A0021136AD4
:101F700043F4804313626160CAE7194B2146012490
:101F80001C6018481C22BDE8F84001F079BC164BD3
:101F900098420ED1114A0321536A43F4002353623D
:101FA0006160B5E711481249502200F055FA2068E7
:101FB0009EE7104B9842ABD1084A0421536A43F480
:101FC000801353626160A3E76C570008185700083C
:101FD0000038014000440040004800400038024002
:101FE000F8040020D8050020004C0040FC540008F4
:101FF00018550008005000408160FFF7EFBE00BF99
:1020000010B4044B44680448196040F824205DF87B
:10201000044B704710050020FC04002038B503680D
:102020002A482B4C8342236032D02A48834219D05D
:10203000294883423BD129482724BAB1DA680029CC
:1020400030D142F02002DA6065B201462846FEF740
:10205000E7F804F017040123214A6D09A34042F870
:10206000253038BD1F482624002AE7D1DA6891B907
:1020700022F02002DA60DB681A0617D46309012215
:1020800004F0170416492033A24041F8232038BD3C
:1020900015482524D1E722F08002DA60DB689B0630
:1020A000ECD538BD42F04002DA60CDE738BD0F48CC
:1020B000834202D10E483024BFE70E4C0E48A342A3
:1020C0001ABF002000243124B7E700BF00380140C8
:1020D0009C0500200044004000480040A51E000868
:1020E00000E100E0991E00088D1E0008004C004031
:1020F000B11E000800500040BD1E000802681368B1
:102100009B06FCD5024B50681A60C0B2704700BFF6
:102110009C050020026813681B06FCD5024BC9B25F
:1021200051601A60704700BF9C05002038B500233D
:10213000036043600A7804462F2A01D0204638BD48
:102140004A78002AFAD0481C20604D782F2D13D0F1
:1021500085B1034600E06AB15D1A013323601A7845
:102160002F2AF8D129460133236000F05FFB60601D
:10217000204638BD2946F8E719460346F3E700BF75
:1021800000687047436843B110B50446184600F034
:102190006BFB012803D1606810BD00207047002050
:1021A00010BD00BF406830B108B500F05DFBB0FA6B
:1021B00080F0400908BD704743684BB110B5044634
:1021C000184600F051FB28B9606818B1043810BDFA
:1021D00000207047002010BD4068003018BF01206B
:1021E000704700BF00F076B8A0F15400FFF7FABFC7
:1021F00000F074B8A0F15400FFF7FABF38B50446F8
:102200001D4600F023F8294604F1540000F0A4F81C
:10221000054B204603F1080103F1200254332160ED
:102220006265A36538BD00BF8055000801EB410120
:10223000C90043185A6B1B6A2AB11BB101442431EF
:10224000184610477047002BFCD0184770B504465D
:102250000E4E0023251D4FF416502065636028465E
:10226000A360E36023616361A361237763772362E3
:102270006363A363E3642660FFF726FE28462246D5
:102280000349FFF7BDFE204670BD00BFE8550008BA
:102290002D22000838B504460D460430FFF7ACFE89
:1022A000256538BD70B40C4669B102EB4203DB0012
:1022B0002033C5180026C15011466E61043001223A
:1022C00070BCFFF7ABBE11460430224670BCFFF76E
:1022D000A5BE00BF0430FFF711BF00BF10B50C460C
:1022E0000430FFF717FF204610BD00BF00207047E5
:1022F000F8B58E18B1420F460ED005460C4601E0E7
:10230000A64207D02B6828465B6A14F8011B984741
:102310000130F5D1E01BF8BD0C46FBE7F8B58E188F
:10232000B1420F460ED005460C4603E004F8010BFF
:10233000A64205D02B6828469B6A9847431CF5D1D6
:10234000E01BF8BD0C46FBE70020704700207047FB
:10235000002070470020704710B5044684B000F09C
:10236000F5F90B4B002203F108013C3384E80A0025
:10237000626101A82246074902F006F9064901A850
:1023800001F0CEF86061FEF763F9204604B010BD9D
:10239000F05500083C5300083456000810B50446B8
:1023A000064B406903F108023C3384E80C0000F05E
:1023B000CFFE204600F0DEF9204610BDF0550008A3
:1023C00038B50D460446406900F078FF284661693B
:1023D000BDE8384001F002B910B50446406900F08C
:1023E0006DFF6069BDE81040FEF736B90EB430B538
:1023F000044682B005AB53F8045B4069019300F0DA
:102400005DFF29466069019A01F018FC02B0BDE841
:10241000304003B0704700BF10B5044643684169BF
:10242000194400F049F8E36A3BB1A06920B104F116
:102430001C01BDE81040184710BDA369002BFBD05C
:10244000BDE81040184700BF10B5044600F03AF848
:102450000023A361E36210BD10B40C46134601468D
:10246000224602485DF8044B00F032B84C56000892
:1024700003689B68184700BF074A002310B580E82F
:102480000C008360C360044600F084F803492061B7
:1024900000F08AF8204610BD885600087124000814
:1024A00010B50446034B0069211D236000F0D0F8ED
:1024B000204610BD8856000803460A460069191DCB
:1024C00000F0A2B801460069043100F0C1B800BFB5
:1024D0000FB400B5064A83B004AB53F8041B106870
:1024E0001A46C068019301F0A9FB012000F0CAFD63
:1024F000A8010020431C10B5044619D091F9003002
:10250000581C04D10FE011F90C3F5A1C0BD09C420F
:10251000F9D120468968FFF70FFC2046BDE810403E
:102520000021FFF737BC0348BDE81040FFF7D0BFDC
:1025300010BD00BF9456000888420AD0421C09D042
:10254000013106D008B50448FFF7C2FF4FF0FF3055
:1025500008BD704708467047A8560008421C0FD0B7
:1025600008B591F900305A1C04D10AE011F90C3F6A
:102570005A1C06D09842F9D14868411C01D008BDC8
:1025800070470348FFF7A4FF4FF0FF30F7E700BFA5
:10259000BC5600080048704710570008014800F07A
:1025A0000DB800BF1057000838B504460D46036843
:1025B0001B68984763681D6038BD00BF036870B52D
:1025C000DB68054698476B685B6883B12A681C68BE
:1025D00053689847201A00286A680DDC5068116813
:1025E000836853600029F0D040688847EBE72B6888
:1025F000BDE870409B6818472B6852681B691068DB
:10260000BDE87040184700BF30B583B072B644686B
:102610000A6065684B608DB12B68D31A002B05DA10
:102620000CE01C68141B002C03DB1D46AB68002B60
:10263000F7D1A9608B6062B603B030BD03686160FA
:102640001B691046019198472B460199F2E700BF9C
:1026500008B572B643685A688A4211D04AB1936885
:102660008B4208D02BB19A688A4205D01346002BC2
:10267000F9D162B608BD13468A689A6062B608BD91
:1026800092685A60036822B110681B69984762B665
:1026900008BD9B689847ECE738B5054600F022F87E
:1026A000044600F01FF8001BA842FAD338BD00BF53
:1026B0004FF47A7303FB00F0FFF7EEBF064B186888
:1026C00000B1704710B40549054C01220C605DF85B
:1026D000044B1A60FDF7ECBD540500201C050020DA
:1026E000000C0040084B186850B910B50749084C59
:1026F00001221A600C60FDF7DBFD054B586A10BD26
:10270000034B586A704700BF540500201C05002089
:10271000000C0040034B1B685863DA6842F0020269
:10272000DA6070471C050020034B1A68D36823F059
:102730000203D360704700BF1C050020024B6FF0FE
:1027400002021B681A6170471C05002010B5044680
:10275000064B002240F8043B00F054F8044B20469E
:1027600003F10802343384E80C0010BD185300084C
:10277000C057000810B50446064B03F10802343375
:10278000226040F8043F00F007F82046FDF706FEFF
:10279000204610BDC0570008094A8368026053B143
:1027A000084B1A68824201D106E01A4653688342F8
:1027B000FBD143685360704742681A60704700BF9E
:1027C00008580008580500200C4A836810B50446D4
:1027D000026053B10A4B1A68904201D10AE01A46CE
:1027E00053689C42FBD163685360204602F074FD3D
:1027F000204610BD42681A60F7E700BF085800087D
:102800005805002010B4074C002302738160046057
:10281000436019B1044B1A68186042605DF8044BBC
:10282000704700BF08580008580500200D4B70B5D0
:102830001C6806460D4614B911E064687CB1A068B6
:102840000028FAD031462A4601F043FF0028F4D18F
:10285000A06801F036FFA842EFD1204670BD0020ED
:1028600070BD00BF58050020007B704781F000411B
:1028700002E000BF83F0004330B54FEA41044FEA65
:10288000430594EA050F08BF90EA020F1FBF54EA00
:10289000000C55EA020C7FEA645C7FEA655C00F09C
:1028A000E2804FEA5454D4EB5555B8BF6D420CDD6D
:1028B0002C4480EA020281EA030382EA000083EAF0
:1028C000010180EA020281EA0303362D88BF30BD90
:1028D00011F0004F4FEA01314FF4801C4CEA1131E6
:1028E00002D0404261EB410113F0004F4FEA033345
:1028F0004CEA133302D0524263EB430394EA050FD0
:1029000000F0A780A4F10104D5F1200E0DDB02FA3E
:102910000EFC22FA05F2801841F1000103FA0EF2D2
:10292000801843FA05F359410EE0A5F120050EF198
:10293000200E012A03FA0EFC28BF4CF0020C43FAC9
:1029400005F3C01851EBE37101F0004507D54FF0D6
:10295000000EDCF1000C7EEB00006EEB0101B1F526
:10296000801F1BD3B1F5001F0CD349085FEA30006C
:102970004FEA3C0C04F101044FEA445212F5800F77
:1029800080F09A80BCF1004F08BF5FEA500C50F114
:10299000000041EB045141EA050130BD5FEA4C0CF7
:1029A000404141EB010111F4801FA4F10104E9D180
:1029B00091F0000F04BF01460020B1FA81F308BF77
:1029C0002033A3F10B03B3F120020CDA0C3208DD43
:1029D00002F1140CC2F10C0201FA0CF021FA02F11E
:1029E0000CE002F11402D8BFC2F1200C01FA02F18E
:1029F00020FA0CFCDCBF41EA0C019040E41AA2BFB3
:102A000001EB0451294330BD6FEA04041F3C1CDA7A
:102A10000C340EDC04F11404C4F1200220FA04F09A
:102A200001FA02F340EA030021FA04F345EA030144
:102A300030BDC4F10C04C4F1200220FA02F001FA06
:102A400004F340EA0300294630BD21FA04F0294688
:102A500030BD94F0000F83F4801306BF81F4801121
:102A60000134013D4EE77FEA645C18BF7FEA655C94
:102A700029D094EA050F08BF90EA020F05D054EA66
:102A8000000C04BF1946104630BD91EA030F1EBF6B
:102A90000021002030BD5FEA545C05D1400049416F
:102AA00028BF41F0004130BD14F580043CBF01F562
:102AB000801130BD01F0004545F0FE4141F4700148
:102AC0004FF0000030BD7FEA645C1ABF1946104623
:102AD0007FEA655C1CBF0B46024650EA013406BF24
:102AE00052EA033591EA030F41F4002130BD00BFE3
:102AF00090F0000F04BF0021704730B54FF48064A0
:102B000004F132044FF000054FF0000150E700BF20
:102B100090F0000F04BF0021704730B54FF480647F
:102B200004F1320410F0004548BF40424FF000016C
:102B30003EE700BF42004FEAE2014FEA31014FEAAF
:102B400002701FBF12F07F4393F07F4F81F06051FE
:102B5000704792F0000F14BF93F07F4F704730B56D
:102B60004FF4607401F0004521F0004120E700BF00
:102B700050EA010208BF704730B54FF000050AE087
:102B800050EA010208BF704730B511F0004502D588
:102B9000404261EB41014FF4806404F132045FEA8A
:102BA000915C3FF4DCAE4FF003025FEADC0C18BF2F
:102BB00003325FEADC0C18BF033202EBDC02C2F125
:102BC000200300FA03FC20FA02F001FA03FE40EAB7
:102BD0000E0021FA02F11444C1E600BF70B54FF0B7
:102BE000FF0C4CF4E06C1CEA11541DBF1CEA135599
:102BF00094EA0C0F95EA0C0F00F0DEF82C4481EA01
:102C0000030621EA4C5123EA4C5350EA013518BF20
:102C100052EA033541F4801143F4801338D0A0FB0D
:102C200002CE4FF00005E1FB02E506F00042E0FBBA
:102C300003E54FF00006E1FB03569CF0000F18BFC0
:102C40004EF0010EA4F1FF04B6F5007F64F5407468
:102C500004D25FEA4E0E6D4146EB060642EAC621FB
:102C600041EA55514FEAC52040EA5E504FEACE2E68
:102C7000B4F1FD0C88BFBCF5E06F1ED8BEF1004F6B
:102C800008BF5FEA500E50F1000041EB045170BDE7
:102C900006F0004646EA010140EA020081EA03012B
:102CA000B4EB5C04C2BFD4EB0C0541EA045170BD27
:102CB00041F480114FF0000E013C00F3AB8014F1A1
:102CC000360FDEBF002001F0004170BDC4F10004EA
:102CD000203C35DA0C341BDC04F11404C4F120056B
:102CE00000FA05F320FA04F001FA05F240EA0200C6
:102CF00001F0004221F0004110EBD37021FA04F6FC
:102D000042EB06015EEA430E08BF20EAD37070BDB5
:102D1000C4F10C04C4F1200500FA04F320FA05F014
:102D200001FA04F240EA020001F0004110EBD37016
:102D300041F100015EEA430E08BF20EAD37070BD86
:102D4000C4F1200500FA05F24EEA020E20FA04F35F
:102D500001FA05F243EA020321FA04F001F000410E
:102D600021FA04F220EA020000EBD3705EEA430E7F
:102D700008BF20EAD37070BD94F0000F0FD101F0AE
:102D80000046400041EB010111F4801F08BF013CE7
:102D9000F7D041EA060195F0000F18BF704703F025
:102DA0000046520043EB030313F4801F08BF013DAC
:102DB000F7D043EA0603704794EA0C0F0CEA135568
:102DC00018BF95EA0C0F0CD050EA410618BF52EA22
:102DD0004306D1D181EA030101F000414FF0000028
:102DE00070BD50EA410606BF1046194652EA430636
:102DF00019D094EA0C0F02D150EA013613D195EAAA
:102E00000C0F05D152EA03361CBF104619460AD1F1
:102E100081EA030101F0004141F0FE4141F47001FB
:102E20004FF0000070BD41F0FE4141F4780170BDEB
:102E300070B54FF0FF0C4CF4E06C1CEA11541DBF50
:102E40001CEA135594EA0C0F95EA0C0F00F0A7F852
:102E5000A4EB050481EA030E52EA03354FEA01317F
:102E600000F088804FEA03334FF0805545EA131392
:102E700043EA12634FEA022245EA111545EA10655A
:102E80004FEA00260EF000419D4208BF964244F1F1
:102E9000FD0404F5407402D25B084FEA3202B61A10
:102EA00065EB03055B084FEA32024FF480104FF4E4
:102EB000002CB6EB020E75EB030E22BFB61A754658
:102EC00040EA0C005B084FEA3202B6EB020E75EBEB
:102ED000030E22BFB61A754640EA5C005B084FEA53
:102EE0003202B6EB020E75EB030E22BFB61A754620
:102EF00040EA9C005B084FEA3202B6EB020E75EB2B
:102F0000030E22BFB61A754640EADC0055EA060EEB
:102F100018D04FEA051545EA16754FEA06164FEA2E
:102F2000C30343EA52734FEAC2025FEA1C1CC0D1DA
:102F300011F4801F0BD141EA00014FF000004FF067
:102F4000004CB6E711F4801F04BF01430020B4F128
:102F5000FD0C88BFBCF5E06F3FF6AFAEB5EB030CE0
:102F600004BFB6EB020C5FEA500C50F1000041EBDD
:102F7000045170BD0EF0004E4EEA113114EB5C04AA
:102F8000C2BFD4EB0C0541EA045170BD41F480117D
:102F90004FF0000E013C90E645EA060E8DE60CEA85
:102FA000135594EA0C0F08BF95EA0C0F3FF43BAFA2
:102FB00094EA0C0F0AD150EA01347FF434AF95EA59
:102FC0000C0F7FF425AF104619462CE795EA0C0F3D
:102FD00006D152EA03353FF4FDAE1046194622E70A
:102FE00050EA410618BF52EA43067FF4C5AE50EAE4
:102FF00041047FF40DAF52EA43057FF4EBAE12E7D4
:103000004FEA410212F5001215D211D56FF4787310
:10301000B3EB625212D94FEAC12343F0004343EAB3
:10302000505311F0004F23FA02F018BF404270478E
:103030004FF00000704750EA013005D111F0004018
:1030400008BF6FF0004070474FF00000704700BFAE
:1030500003460846194600F001B8000038B5054699
:1030600004480C46134620B1022029462246AFF3FD
:10307000008038BD00000000014B1868704700BF99
:10308000A801002008B5074B044613B10021AFF397
:103090000080054B1868836A03B198472046FDF706
:1030A000C5FA00BF000000007458000870B505465E
:1030B0000C4609B9002070BD18B183690BB900F046
:1030C00083F9204B9C4201D16C6808E01E4B9C4266
:1030D00001D1AC6803E01D4B9C4208BFEC68B4F919
:1030E0000C30002BE6D02846214600F039F8236B3F
:1030F000064633B12846216A98470028B8BF4FF0EA
:10310000FF36A3891B0603D52846216900F0CCFBB6
:10311000616B41B104F14403994202D0284600F0AA
:10312000C3FB00236363A16C21B1284600F0BCFB04
:103130000023A36400F0B2F90023A38100F0AFF9EB
:10314000304670BD1058000830580008505800082C
:10315000024B01461868FFF7A9BF00BFA801002075
:103160008A892DE9F041054610070C4657D44B6873
:10317000002B02DC0B6C002B18DDE66AB6B102F402
:103180008052002392B22F682B600AB1626D10E06A
:10319000216A28460123B047411C024609D12B6809
:1031A0003BB11D2B01D0162B46D12F600020BDE86E
:1031B000F081A3895B0705D56368D21A636B0BB1F5
:1031C000236CD21AE66A00232846216AB047461CBF
:1031D000A38905D12A681AB11D2A01D0162A19D14E
:1031E000002262602269D904226004D5421C01D108
:1031F0002B6803B96065616B2F600029D6D004F19C
:103200004403994202D0284600F04EFB0020606340
:10321000BDE8F08143F04003A381BDE8F0810F6970
:10322000002FC3D093070E680CBF4B690023C7EB78
:1032300006080F608B6012E0A3894FF0FF3043F067
:103240004003A381BDE8F0812846216A3A464346FF
:10325000A66AB0470028EFDD0744C0EB0808B8F1C4
:10326000000FF1DCA2E7000038B50B6905460C46FB
:10327000DBB118B183690BB900F0A6F80C4B9C4286
:1032800001D16C6808E00B4B9C4201D1AC6803E0B3
:10329000094B9C4208BFEC68B4F90C302BB12846AE
:1032A0002146BDE83840FFF75BBF002038BD00BFB6
:1032B000105800083058000850580008014620B93E
:1032C000044B0549186800F03DBA044B1868FFF735
:1032D000CBBF00BF7458000869320008A801002065
:1032E00038B50C46054618B183690BB900F06CF887
:1032F0000E4B9C4201D16C6808E00D4B9C4201D101
:10330000AC6803E00B4B9C4208BFEC686368013B70
:10331000002B636005DA28462146BDE8384001F0FD
:1033200035B823685A1C2260187838BD1058000838
:103330003058000850580008024B01461868FFF743
:10334000CFBF00BFA8010020014900F0FBB900BFBA
:103350006932000810B504460023036043608360AF
:1033600081814366C28103614361836119465C3098
:10337000082200F090FA054B24626362044BA362BA
:10338000044BE362044B236310BD00BF25460008D5
:103390004B46000883460008A746000870B568231E
:1033A0004D1E5D430E4605F1740100F0C1FA04465E
:1033B00040B1002180E842000C30A06005F16802B5
:1033C00000F069FA204670BD836910B5044633BB2E
:1033D0008364C3640365124B124A1B68826298427D
:1033E00004BF0123836100F01FF86060204600F0F5
:1033F0001BF8A060204600F017F80421E0600022CE
:103400006068FFF7A7FFA06809210122FFF7A2FF6C
:10341000E06812210222FFF79DFF0123A36110BD86
:103420007458000849330008F8B51B4B07461E685E
:10343000B36913B93046FFF7C7FF4836B4687368FD
:10344000013B04D4B4F90C5075B16834F8E7336823
:103450002BB938460421FFF7A1FF306008B1366868
:10346000ECE70C233B60F8BD4FF6FF73E3810123CB
:10347000A38165662560A560656025616561A561BC
:1034800004F15C002946082200F005FA6563A56393
:10349000A564E5642046F8BD74580008704770477D
:1034A000F7B50F46114601AA054601F049FB06464D
:1034B00008B9002029E02846FFF7B6FF0446002897
:1034C000F7D028463946019A4FF4DB7300F0A4FE8A
:1034D000002806DA0025FFF7E1FFA581FFF7DFFFEF
:1034E000E7E70B4BE08163620A4BA681A3620A4BBC
:1034F0002462E362094B2363F30505D52846214680
:103500000022022300F074F8204603B0F0BD00BF93
:10351000254600084B46000883460008A7460008D9
:1035200003460A46024908681946FFF7B9BF00BFBB
:10353000A801002070B50D461446064618B18369EF
:103540000BB9FFF741FF224B9C4201D1746808E0A0
:10355000204B9C4201D1B46803E01F4B9C4208BF42
:10356000F468A3891A0701D523699BB9304621461F
:1035700001F06AFA70B14FF0FF3070BDA368013BF3
:10358000002BA3600BDB236815F8012C1A7023684D
:103590000133236015F8010B0028EFD116E0A26972
:1035A000934209DB236815F8012C1A7023681978F7
:1035B0000A29EDD1304602E0304615F8011C2246BA
:1035C00001F0DCF9431C58425841D3E770BD00BFFD
:1035D00010580008305800085058000803460A46A2
:1035E000024908681946FFF7A5BF00BFA8010020DF
:1035F00000F000B82DE9F8430C4690461E460546FB
:1036000018B183690BB9FFF7DFFE3D4B9C4201D136
:103610006C6808E03B4B9C4201D1AC6803E03A4B3C
:103620009C4208BFEC68A38903F48473B3F5847FDC
:1036300003D128462146FFF717FEE76A0FB91D237D
:103640002BE0012E04D0022E2BD056B3162324E0FB
:1036500028462146FFF708FEA28902F4805292B262
:103660000AB1606D05E0216A28463346B847411C1F
:1036700014D0A3895A0706D56368C01A636B4BB18F
:10368000236CC01A06E01B0704D5236813B1226916
:103690009B1A18448044002603E02B604FF0FF394A
:1036A0002BE023691BB92846214600F08FF82846F5
:1036B0002146FFF7D9FD81460028EFD12846216A2F
:1036C00042463346B8470130E8D0616B41B104F15E
:1036D0004403994202D0284600F0E6F800236363D1
:1036E000236900212360A389616023F40263A3811D
:1036F00004F15C00082200F0CEF84846BDE8F883EB
:103700001058000830580008505800082DE9F041C2
:10371000884600F1480400268CB1A5686768013F1F
:103720000BD4AB89012B06D9B5F90E30013302D089
:103730002846C04706436835F1E72468ECE7304681
:10374000BDE8F0812DE9F8438046894600F1480440
:10375000002694B1A5686768013F0CD4AB89012BA2
:1037600007D9B5F90E30013303D040462946C84782
:1037700006436835F0E72468EBE73046BDE8F88398
:103780000E4B70B51E460E4C0025E41AA410A5423F
:1037900004D056F8253098470135F8E701F09EFD32
:1037A000084B094C1E46E41AA4100025A54204D07B
:1037B00056F8253098470135F8E770BDB001002074
:1037C000B0010020B0010020BC010020F0B58B89C1
:1037D00091B09D0706460C4625D4B1F90E1000297C
:1037E00008DAA389002513F0800F14BF40274FF497
:1037F00080670DE001AA01F0DBF90028F1DB029DF2
:103800004FF4806705F47045A5F500514D424D41D8
:103810003046394600F08CF860B9A3899A051DD46A
:1038200043F00203A38104F14703236023610123D2
:10383000636113E00A4BB362A389206043F0800305
:10384000A381206167614DB13046B4F90E1001F0DB
:10385000C1F918B1A38943F00103A38111B0F0BDF0
:103860004933000810B5C9B202449042034605D05E
:103870001C7801308C42F8D1184610BD002010BDD4
:1038800010B5431E0A44914204D011F8014B03F8CD
:10389000014FF8E710BD03460244934202D003F8FB
:1038A000011BFAE77047000030B500293CD051F801
:1038B000042C0B1F1D49002AB8BF9B180A680C4630
:1038C00012B95A600B6030BD93420DD21968581876
:1038D000904201BF5A5852181A60426823605A60D9
:1038E00030BD994203D80A4651680029F9D11468BD
:1038F00015199D420AD11B682344D01888421360D1
:1039000012D10868034413604B680CE002D90C2301
:10391000036030BD1C681819884201BF08684968F7
:10392000001918605960536030BD00BF6005002069
:1039300070B5CC1C24F0030408340C2C38BF0C24C4
:10394000002C064603DA0C233360002070BD8C4245
:10395000F9D3204A136810461946A1B10A68121B10
:103960000ED40B2A03D90A608B188C501FE08B42AF
:103970000BBF5A684A6802605A6018BF0B4616E0CF
:103980000B464968E9E7144D2B681BB9304600F037
:1039900029FD28603046214600F024FD421C0346E4
:1039A000D1D0C51C25F0030585420AD11C6003F166
:1039B0000B001A1D20F00700821A0AD051429950BC
:1039C00070BD3046E91A00F00DFD0130BBD02B462A
:1039D000ECE770BD600500205C050020936810B521
:1039E000013B002B936009DA9469A34202DBCBB25E
:1039F0000A2B03D1BDE8104000F0C0BF1368581C6B
:103A000010601970C8B210BDF8B506460F461446CE
:103A1000D518AC4208D0304614F8011B3A46FFF7DF
:103A2000DDFF431CF5D100E00020F8BD2DE9F04397
:103A30009DB00D4690460393064618B183690BB9B5
:103A4000FFF7C2FC754B9D4201D1756808E0744BCD
:103A50009D4201D1B56803E0724B9D4208BFF568F5
:103A6000AB891C070AD52B6943B100230993202396
:103A70008DF8293030238DF82A3041E03046294630
:103A800000F0E2FF0028F0D04FF0FF30C2E0039AD0
:103A90000134111D12680391002ABBBF524243F04A
:103AA000020307920792B8BF049323782E2B7BD092
:103AB000DFF88081217840460322FFF7D3FE38B13A
:103AC000049AC8EB0000402383401343049301345D
:103AD00021785548062204F101088DF82810FFF7D7
:103AE000C1FE002800F08580504B002B78D1039B4D
:103AF000073323F0070308330393099B3B440993DF
:103B000043461C4613F8012B1AB9B4EB08090ED032
:103B100002E0252AF5D1F8E73046294642464B46D1
:103B2000FFF772FF013070D0099B4B440993237853
:103B3000002B6AD000234FF0FF32049307930592C5
:103B400006938DF853301A9304F101084446DFF8C8
:103B5000E890217848460522FFF784FE08F1010825
:103B6000049B30B1C9EB000001228240134304934F
:103B7000ECE7D80644BF20228DF85320190744BF34
:103B80002B228DF8532022782A2A80D023460799A9
:103B90001C4622780133303A092A03D80A2000FB58
:103BA0000121F5E7079180E763782A2B0AD1039B6F
:103BB00002341A1D1B680392002BB8BF4FF0FF336D
:103BC000059375E7611C00220C4623780131303BD8
:103BD000092B03D80A2000FB0232F5E7059267E7BC
:103BE00003AB0093304604A92A46114BAFF3008083
:103BF00007E003AB0093304604A92A460C4B00F0C3
:103C0000A1F8421C07467FF478AFAB895B063FF50D
:103C10003BAF09981DB0BDE8F08300BF1058000805
:103C20003058000850580008825800080000000072
:103C3000093A00087E5800087858000830B5054653
:103C40000C461346034A294610682246BDE8304018
:103C5000FFF7ECBEA80100202DE9F84391461F466E
:103C60008A680B6906469342B8BF1346C9F800300C
:103C700091F843200C46DDF8208012B10133C9F8D9
:103C800000302368990642BFD9F800300233C9F8E2
:103C90000030256815F006051CD094F843302268E2
:103CA000003318BF012392061FD5E118302081F898
:103CB00043005A1C94F845102244023382F8431002
:103CC00013E03046394604F119020123C0470130A0
:103CD00007D00135E368D9F800209B1A9D42F0DB3C
:103CE000DBE74FF0FF30BDE8F8833046394604F19A
:103CF0004302C0470130F4D02268D9F80050E3688D
:103D000002F00602042A08BF5D1B2269A3680CBFEB
:103D100025EAE57500259342C4BF9B1AED184FF0C4
:103D20000009A9450ADA3046394604F11A0201238E
:103D3000C0470130D5D009F10109F2E70020BDE804
:103D4000F88300002DE9FF410C461746227E984675
:103D50006E2A06460A9B01F1430100F0AA8012D8A0
:103D6000632A23D00AD8002A00F0B780582A40F0EE
:103D7000C68084F84520DFF8F8E151E0642A1ED0BF
:103D8000692A1CD0BBE0732A00F0AB8009D86F2AE7
:103D90002BD0702A40F0B380226842F020022260CB
:103DA00039E0752A21D0782A35D0A8E01A6804F1C4
:103DB0004205111D1960136884F84230A3E02068A1
:103DC0001A6810F0800F03D0101D1860136805E00A
:103DD0004506F9D5101D1860B2F90030002B3BDA0A
:103DE0002D225B4284F8432036E020681A6810F0E8
:103DF000800F03D0101D1860136804E04006F9D549
:103E0000101D18601388227EDFF864E16F2A0CBF52
:103E100008220A221CE07822DFF858E184F84520C5
:103E20002268186812F0800F00F104051D6001D0AF
:103E3000036802E05506FBD50388D00744BF42F073
:103E4000200222601BB9226822F020022260102288
:103E5000002084F8430002E0DFF814E10A226568DC
:103E6000002DA8BF2068A560A4BF20F0040020603A
:103E700003B965B10D46B3FBF2F002FB10331EF837
:103E8000033005F8013D03460028F4D100E00D465B
:103E9000082A0BD12368DA0708D5236962689A4299
:103EA000DEBF302305F8013C05F1FF35491B2161D8
:103EB0002EE025681A6815F0800F606903D0151D83
:103EC0001D60136808E015F0400F02F104051D6045
:103ED000136801D0188000E01860002323610D46AC
:103EE00016E01A68111D19601568002128466268DD
:103EF000FFF7B8FC08B1401B6060636804E004F1A0
:103F0000420584F8422001232361002384F84330D2
:103F1000CDF800803046214603AA3B46FFF79CFEC1
:103F2000013002D14FF0FF301FE0304639462A46BB
:103F30002369C0470130F5D023689B0705D4E068AA
:103F4000039B9842B8BF18460FE00025E368039A28
:103F50009B1A9D42F3DA3046394604F119020123D7
:103F6000C0470130DED00135F0E704B0BDE8F08194
:103F7000895800089A5800082DE9F04115468A68CA
:103F800080460C4632B98A69002A0CBF01224FF0E4
:103F9000FF328A6022680026D1065FBF1A68111DB1
:103FA00019601768A069F8B923680136DA065EBFA0
:103FB0002B681B783B702A686B6802F101022A604B
:103FC000A26803F1FF3302F1FF326B6058BF013783
:103FD000A260EAB1002BE5DCD4F8803140462946E6
:103FE00098470028DED013E0012807D12B686269CA
:103FF0001B78D35C002BD7D1C6B109E0022807D1CA
:104000002B680B4A1B78126813445B781B07CBD5CF
:10401000236813F0100305D1E2680132E260A2695F
:1040200002B13B70236900201E442661BDE8F08187
:10403000AC0100202DE9F04F0C469A46724B87B038
:104040008346164693E8070003AB83E807006F4BEF
:10405000A1696F4A04F11C09032918BF1A46A36815
:1040600000925A1EB2F5AE7F82BF6FF4AE7503EBBD
:10407000050840F25D134F4688BFA360236898BFD0
:104080004FF0000843F4506323600023326803A913
:1040900051F82300117802220193FFF7E3FB019B03
:1040A000002835D0012B0BD162682AB90822626042
:1040B000226842F400722260226822F4A0620BE0BF
:1040C000022B0AD1226802F4C061B1F5007F1FD132
:1040D0001021616042F480722260A268511EA160CA
:1040E000B2B132687D1C511C316012783A7072682E
:1040F000013A002A72600ADCD4F880215846314621
:1041000001939047002841D12F46019B00E02F46A4
:104110000133032BBAD163680BB90A236360636868
:104120003C496069C91A00F06DF93D460027A36853
:104130006BB3316860690A78805C40B3302A2268CA
:104140000AD1100508D50137B8F1000F0BD00133A3
:1041500008F1FF38A36006E022F4106222600B78B9
:10416000013505F8013C7368013B002B736003DDEA
:1041700033680133336005E0D4F880315846314666
:10418000984720B9A368013BA360D0E700272368C4
:10419000D9050DD54D4509D915F8011C05F1FF3894
:1041A000D4F87C3158463246984745464D4527D08D
:1041B000226812F010021BD12A70636858464946E3
:1041C000009EB0472268DAF8003012F0200F07D1C5
:1041D000D20705D51A1DCAF800201B68188004E014
:1041E0001A1DCAF800201B681860E3680133E360F9
:1041F000C9EB05053D44276900203D44256100E0E9
:10420000012007B0BDE8F08FAC5800081148000845
:1042100005470008C858000838B5074C0546002077
:104220002060084611461A46FCF7CEF8431C02D11E
:10423000236803B12B6038BDF40500200FB40A4B8E
:1042400013B51C6824B1A36913B92046FFF7BCF865
:1042500005AB2046A168049A0193FFF7E7FB02B083
:10426000BDE8104004B07047A8010020838903F026
:104270000903092B01D1FFF721B800207047000086
:10428000F8B50C46054618B183690BB9FFF79CF8E1
:10429000394B9C4201D16C6808E0384B9C4201D1FB
:1042A000AC6803E0364B9C4208BFEC68A28900234F
:1042B000636093B29E065AD458071AD4D90605D41F
:1042C000092342F040022B60A28150E01A070BD56F
:1042D00028462146FEF7C8FF002848D1A389A060E0
:1042E00023F00803A381A061A38943F00403A38101
:1042F00010E0616B71B104F14403994202D0284689
:10430000FFF7D2FA236C00206063636013B1E36BA4
:104310002360F8BD23691BB928462146FFF756FAEA
:10432000A789BEB2B3070FD00123A381154B16494D
:10433000186806F00906FFF7E9F9092EA78103D1ED
:1043400028462146FEF70CFF2269666A226028464D
:10435000216A6369B047002860600BDCA38917BF3E
:10436000002243F0200343F040036260A3814FF03A
:10437000FF30F8BD0020F8BD105800083058000884
:1043800050580008745800086D42000838B50C46B3
:10439000054618B183690BB9FFF716F80E4B9C421E
:1043A00001D16C6808E00D4B9C4201D1AC6803E080
:1043B0000B4B9C4208BFEC6828462146FFF760FF84
:1043C00038B96368013B636023685A1C226018781F
:1043D00038BD4FF0FF3038BD105800083058000885
:1043E0005058000838B5064C00230546084623609F
:1043F000FCF708F9431C02D1236803B12B6038BDD8
:10440000F4050020F0B50A78441E5E2A13BF4B1C49
:104410008B1C4A78002108BF012100F1FF0504F838
:10442000011FAC42FBD10AB9581EF0BDC1F1010415
:10443000E7B2875419785E1C2D2905D05D290ED06E
:1044400079B10A463346F3E75D785D2DF9D09542A0
:10445000F7DB02330132AA428754FBDBEAE730463E
:10446000F0BD1846F0BD00290CBF022200224FF417
:10447000806300F001B800002DE9F0411D463D4B7E
:1044800004461E680F46904626B1B36913B93046FC
:10449000FEF79AFF384B9C4201D1746808E0374B15
:1044A0009C4201D1B46803E0354B9C4208BFF468DC
:1044B000B8F1020F5AD8002D58DB30462146FEF7DE
:1044C000D3FE00236360A361A3891B0603D5304696
:1044D0002169FFF7E9F9A389B8F1020F23F08303FB
:1044E000A38112D037BB002D08BF4FF4806528464A
:1044F00000F092FB0746C8B94FF4806000F08CFBD7
:10450000074688B94FF0FF3000E00020A38943F050
:104510000203A3810023A36004F147032360236106
:1045200001236361BDE8F0814FF48065A38943F006
:104530008003A381B8F1010F01BFA38943F00103F8
:10454000A3816B4208BFA3610E4BB362A3892760AE
:1045500003F0080080B22761656148B113F0030FD2
:1045600018BF0025A5600020BDE8F0814FF0FF30A6
:10457000BDE8F081A801002010580008305800085C
:1045800050580008493300080EB400B54FF40271CA
:104590009CB0ADF814106FF00041049107914FF6F4
:1045A000FF711DABADF81610084953F8042B0290AB
:1045B0000690086802A9019300F0D8FB029B002234
:1045C0001A701CB05DF804EB03B07047A80100201E
:1045D0000EB430B59CB01FAC4FF4017254F8045BBC
:1045E000ADF814200290069000F06BF80B4B03908E
:1045F0000B9300230F9314934FF6FF73ADF816300F
:10460000074B079002A918682A462346019400F038
:10461000F9FC1CB0BDE8304003B0704747460008C5
:10462000A801002010B50C46B1F90E1000F038FEBC
:104630000028ABBF636DA3891B1823F48053ACBF64
:104640006365A38110BD002070472DE9F0411D4630
:104650008B890746DB050C46164605D5B1F90E10C9
:104660000022022300F0C6FAA389384623F48053BF
:10467000A381B4F90E1032462B46BDE8F04100F09C
:10468000D1B910B50C46B1F90E1000F0B3FA431CC5
:10469000A38915BF606523F4805343F48053A3813D
:1046A00018BFA38110BDB1F90E1000F039BA10F88F
:1046B000012B11F8013B012A28BF9A42F7D0D01AEA
:1046C0007047034613F8012B002AFBD1181A013852
:1046D000704770B5A2B1451E01396B7811F8014FD2
:1046E0006E1CA34206D16FF00104641B1444E04227
:1046F00002D11C46181B70BD3546002BEDD1F8E7E2
:10470000104670BD2DE9F0470F46404CD4F800909C
:104710003D4615F801EB09EB0E04667806F0080437
:1047200004F0FF060CB12F46F2E774462D2C03D19E
:10473000BD1C7C78012603E02B2C04BF7C78BD1CBB
:1047400013B1102B0AD15AE0302C56D12C7804F03A
:10475000DF04582C4CD16C7810230235002E14BF86
:104760004FF000486FF00048B8FBF3FA0027BE4650
:1047700003FB1A8809EB040C9CF801C01CF0040F21
:1047800001D0303C0BE01CF0030C1BD0BCF1010F3E
:104790000CBF4FF0370C4FF0570CCCEB04049C428D
:1047A00010DAB7F1FF3F0AD0D64506D801D144450B
:1047B00003DC03FB0E4E012701E04FF0FF3715F835
:1047C000014BD7E77C1C73460AD1002E4FF0220123
:1047D00014BF4FF000436FF0004301602AB911E0AD
:1047E0000EB1CEF100036AB107B1691E116009E094
:1047F0003024002BB2D10823B0E70A23AEE7302CD7
:10480000ACD1A3E71846BDE8F08700BFAC0100209B
:104810002DE9F0470E463B4CD4F80090354615F88C
:1048200001EB09EB0E04677807F0080404F0FF07BA
:104830000CB12E46F2E774462D2C03D1B51C7478CA
:10484000012703E02B2C04BF7478B51C13B1102B87
:104850000AD151E0302C4DD12C7804F0DF04582CD3
:1048600043D16C78102302354FF0FF38B8FBF3F8D2
:1048700003FB08FA00266FEA0A0AB64609EB040CA5
:104880009CF801C01CF0040F01D0303C0BE01CF080
:10489000030C1BD0BCF1010F0CBF4FF0370C4FF0D5
:1048A000570CCCEB04049C4210DAB6F1FF3F0AD05F
:1048B000C64506D801D1544503DC03FB0E4E012644
:1048C00001E04FF0FF3615F8014BD7E7741C734633
:1048D00003D122230360334602E00FB1CEF100037F
:1048E0006AB106B1691E116009E03024002BBBD10A
:1048F0000823B9E70A23B7E7302CB5D1ACE718464F
:10490000BDE8F087AC0100202DE9F0410C46496B71
:1049100004F1440399421AD14FF48061FFF708F87B
:1049200018B94FF0FF30BDE8F0814FF48063A36306
:1049300094F84630606380F8FF3394F8453000F215
:10494000FD30437094F844300370206012E0A66B91
:1049500077003A4600F08BF905460028E1D000EBDD
:104960000608404629463246FEF78AFFC4F8008012
:104970006563A7630020BDE8F081000070B50D46B7
:104980001446064618B183690BB9FEF71DFD224B8C
:104990009C4201D1746808E0204B9C4201D1B4686C
:1049A00003E01F4B9C4208BFF468A369A360A3897E
:1049B0001A0709D523693BB123682069EDB2181A9B
:1049C000636998420FDB08E03046214600F03CF86E
:1049D0000028F1D04FF0FF3070BD30462146FEF781
:1049E00043FC0028F6D1A3680130013BA360236893
:1049F0005A1C22601D706369984204D0A389DB07AA
:104A000007D50A2D05D130462146FEF72DFC00289A
:104A1000E0D1284670BD00BF10580008305800088B
:104A20005058000838B5074C05460020206008465D
:104A300011461A46FBF75AFD431C02D1236803B105
:104A40002B6038BDF4050020314B70B51D6806465B
:104A50000C4625B1AB6913B92846FEF7B5FC2D4BC2
:104A60009C4201D16C6808E02B4B9C4201D1AC68A0
:104A700003E02A4B9C4208BFEC68A3899AB2110755
:104A80001DD4D50602D40922326038E0500712D571
:104A9000616B41B104F14403994202D03046FEF704
:104AA00003FF00236363A38923F02403A38100236E
:104AB000636023692360A38943F00803A38123690A
:104AC0004BB9A38903F42073B3F5007F03D03046BC
:104AD0002146FEF77BFEA38913F0010205D00022D8
:104AE000A26062695242A26103E0990758BF6269FD
:104AF000A26022694AB903F0800080B230B143F06D
:104B00004003A3814FF0FF3070BD002070BD00BF97
:104B1000A80100201058000830580008505800081C
:104B200038B5064C0023054608462360FBF7CAFC4F
:104B3000431C02D1236803B12B6038BDF40500206B
:104B40000B7830B5722B0ED0772B07D0612B0ED19E
:104B50004FF4027401234FF484701AE04FF4C064E0
:104B60000123082015E000242346042011E0162329
:104B70000360002030BD622D10D0782D11D02B2D78
:104B800007D120F01C0023F0030340F0100043F095
:104B9000020311F8015F002DEDD105E043F48033ED
:104BA000F7E743F40063F4E72343136030BD0000EC
:104BB00038B5074C00230546084611462360FBF72D
:104BC00001FD431C02D1236803B12B6038BD00BF37
:104BD000F405002038B5064C00230546084623603E
:104BE000FBF7CCFC431C02D1236803B12B6038BD1A
:104BF000F405002038B5074C054600202060084623
:104C000011461A46FBF7CCFC431C02D1236803B1C2
:104C10002B6038BDF4050020024B01461868FEF7F2
:104C200087BE00BFA8010020024B01461868FEF7AE
:104C30003BBE00BFA8010020814210B501EB02037A
:104C400001D3421E0BE09842FBD28118D21AD34204
:104C500004D013F8014D01F8014DF8E710BD994259
:104C600004D011F8014B02F8014FF8E710BDF8B578
:104C7000074615460E4621B91146BDE8F840FEF735
:104C800057BE1AB9FEF710FE2846F8BD00F01AFB11
:104C9000A8420ED238462946FEF74AFE044650B1D5
:104CA00031462A46FEF7ECFD38463146FEF7FCFD5C
:104CB00001E03046F8BD2046F8BD2DE9F0478E688A
:104CC0008246B3420C469046994640D38A8912F4F4
:104CD000906F3AD02568096902236F1A656905EB60
:104CE000450595FBF3F57B1C4B449D4238BF1D46A3
:104CF00053050FD52946FEF71BFE064698B12169DC
:104D00003A46FEF7BDFDA38923F4906343F0800388
:104D1000A38113E02A46FFF7AAFF064670B9504662
:104D20002169FEF7C1FD0C23CAF80030A3894FF0BA
:104D3000FF3043F04003A381BDE8F08726613E4485
:104D400026604E466561ED1BA560B14500D24E461A
:104D5000324620684146FFF76FFFA36800209B1B87
:104D6000A36023681E442660BDE8F0872DE9F04368
:104D70009DB003938B8906461C060D4690460CD5C4
:104D80000B6953B94021FEF7D3FD2860286110B9A3
:104D90000C233360CCE040236B6100230993202374
:104DA0008DF8293030238DF82A3043461C4613F8FD
:104DB000012B1AB9B4EB08090FD002E0252AF5D16E
:104DC000F8E73046294642464B46FFF776FF01306A
:104DD00000F0A980099B4B4409932378002B00F035
:104DE000A28000234FF0FF320493079305920693AD
:104DF0008DF853301A9304F101084446DFF84891C6
:104E0000217848460522FEF72DFD08F10108049B94
:104E100030B1C9EB00000122824013430493ECE758
:104E2000D80644BF20228DF85320190744BF2B22F7
:104E30008DF8532022782A2A02D0079923460EE0C3
:104E4000039A0134111D12680391002ABBBF52421C
:104E500043F0020307920792B8BF04930AE01C468E
:104E600022780133303A092A03D80A2000FB0121B5
:104E7000F5E7079123782E2B1AD163782A2B0AD1D4
:104E8000039B02341A1D1B680392002BB8BF4FF01E
:104E9000FF3305930CE0611C00220C46237801319E
:104EA000303B092B03D80A2000FB0232F5E70592BC
:104EB000DFF89880217840460322FEF7D3FC38B112
:104EC000049AC8EB00004023834013430493013449
:104ED00021781A48062204F101088DF82810FEF7FF
:104EE000C1FC88B1164B33B9039B073323F007038A
:104EF0000833039313E003AB0093304604A92A461A
:104F0000104BAFF3008007E003AB0093304604A9D9
:104F10002A460C4BFEF716FF421C074603D0099B9E
:104F20003B44099341E7AB895B0601D4099801E052
:104F30004FF0FF301DB0BDE8F08300BF825800087D
:104F400000000000BB4C0008785800087E5800089C
:104F500038B54B1C144602D14FF0FF3038BD938951
:104F6000CDB223F020039381536B526883B1A36BBE
:104F70009A4207DA23685A1E226003F8015C6368CC
:104F800001331FE02146FFF7BFFC0028F2D0E3E722
:104F90002169236851B18B4208D913F8010CA8424A
:104FA00004D1013B01322360626038BDE36304F148
:104FB000440363630323A3632346226403F8465F29
:104FC000236001236360284638BD10B50C46496B49
:104FD00069B104F14403994201D0FEF765FC236CEA
:104FE00000206063636013B1E36B236010BD23692D
:104FF0004FF0FF30236000236360A38943F0200358
:10500000A38110BD2DE9F04707460C469046ADF54B
:10501000247D01930023469347939C4B0DF10C0A8A
:10502000A2939B4BCDF820A1A39398F80050002D9C
:1050300000F0248197490B6889462B445B7803F084
:10504000080303F0FF02EBB16368002B10DD236857
:10505000D9F800101A780A44527815070ED5479AE5
:1050600001330132479262682360013A6260EBE7E4
:10507000A39B3846214698470028E8D008F101064E
:10508000B046D2E7252D08F101064FD14592439253
:1050900098F801302A2B03D11023439308F102061C
:1050A00031783546A1F13003092B06F1010606D807
:1050B000459B0A2202FB0313303B4593F0E7DFF8E0
:1050C000DC8103224046FEF7CDFB40B1354601238B
:1050D000C8EB000003FA00F2439B134343936E1C9A
:1050E0002D78672D0FD8652D78D25B2D54D005D83B
:1050F000002D00F0C580252D18D071E0632D57D00C
:10510000642D3FD06CE0702D32D007D86E2D55D075
:105110003AD8692D64D1002344933BE0752D31D0FA
:10512000782D29D0732D5BD102233FE06368002BDB
:105130000DDD23681A78AA4240F0A080013362682E
:105140002360479B013A01336260479398E7A39B32
:105150003846214698470028EBD04698002800F0B2
:105160008F80A38913F0400F18BF4FF0FF3089E004
:10517000439B43F020034393439B43F400734393C7
:10518000102302E00A2300E008236E2D449301DD82
:1051900004230BE0032309E031465046FFF732F9C0
:1051A0000646439B43F040034393012349931BE08E
:1051B000439B43F0400343930023F7E7439AD00611
:1051C0003FF55EAF12F0010F019A479B02F1040117
:1051D0000191126814BF1380136051E70523E5E7BE
:1051E000032349930A2344936368002B03DD439B05
:1051F000590611D518E0A39B384621469847002848
:10520000F5D0AAE7479A013247926268013A002A2C
:10521000626013DD013323602368D9F800101A7827
:105220000A4452781207EDD4499B022B0DDC384614
:1052300043A9224601ABFEF79FFE19E0A39B384627
:10524000214698470028E7D087E7042B06DC38463C
:1052500043A9224601ABFEF7EDFE09E00E4B002B01
:105260003FF40EAF384643A9224601ABAFF30080AE
:10527000012803D002287FF403AF6EE7469801E0CF
:105280004FF0FF300DF5247DBDE8F087514F000849
:10529000CB4F0008AC010020000000007E58000841
:1052A00038B5074C054600202060084611461A46CE
:1052B000FBF742F9431C02D1236803B12B6038BDD0
:1052C000F405002051F8040C0028BEBF091851F85D
:1052D000043CC01804387047FFF7A6BCF8B500BFFF
:1052E000F8BC08BC9E467047F8B500BFF8BC08BCC7
:1052F0009E4670472F737464696E00002F73746448
:10530000657272002F7374646F7574000000000082
:105310000000000000000000E5050008E5050008A9
:10532000E5050008E5050008E5050008E5050008B5
:105330005903000800000000000000003A2570003A
:10534000457863657074696F6E0000000304060899
:105350000C101820300000000000000001020304BF
:10536000010203040607080901020304000000000B
:1053700000000000010203040607080903040608F0
:105380000C101820300D2573000A0A2A2A2A2A2A0E
:105390002A2A2A2A2A544553542A2A2A2A2A2A2AD5
:1053A0002A2A2A0A0A0D0024504D544B3235312C3A
:1053B000393630302A31370D0A0024504D544B32E3
:1053C00032302C313030302A31460D0A0024504D15
:1053D000544B3331342C312C312C312C312C312C99
:1053E000352C302C302C302C302C302C302C302CD8
:1053F000302C302C302C302C302C302A32430D0AFB
:10540000007374723A2025730A0D0070617273651F
:105410003A2025643A25643A25642D2D25692C25EA
:1054200063202025692C25630D000000000000008A
:105430000100000011000000020000001200000046
:1054400003000000000011100000211000003110C6
:1054500000001210000022100000321000000010A6
:1054600050696E6D6170206572726F723A2077724A
:105470006F6E6720706F7274206E756D6265722E2C
:105480000000000070696E20213D202850696E4E9A
:10549000616D65294E430000433A5C436F64655C6F
:1054A0006769745F7265706F5C6769746875625C68
:1054B0006D6265642D6F6666696369616C5C6C69B9
:1054C000627261726965735C6D6265645C7461725D
:1054D000676574735C68616C5C5441524745545F06
:1054E00053544D5C5441524745545F53544D3332ED
:1054F0004C315C70696E6D61702E63006F626A2D55
:105500003E7561727420213D2028554152544E61F0
:105510006D65294E43000000433A5C436F64655C4F
:105520006769745F7265706F5C6769746875625CE7
:105530006D6265642D6F6666696369616C5C6C6938
:10554000627261726965735C6D6265645C746172DC
:10555000676574735C68616C5C5441524745545F85
:1055600053544D5C5441524745545F53544D33326C
:105570004C315C73657269616C5F6170692E6300A8
:105580000000000000000000DD170008751800088A
:10559000E5210008F1210008ACFFFFFF000000003A
:1055A000F1220008ED2200081D2300084D23000809
:1055B000492300085123000855230008011800085A
:1055C00087180008F5210008E9210008A8FFFFFF5F
:1055D00000000000091800088D18000800000000F5
:1055E0000000000000000000D91700081118000892
:1055F0000000000000000000F1220008ED22000879
:105600001D2300084D2300084923000851230008EA
:10561000552300080000000000000000E505000818
:10562000E5050008FCFFFFFF00000000000000008F
:1056300000000000772B00000000000000000000C8
:105640001D18000839180008192400086D626564E7
:10565000206173736572746174696F6E206661692D
:105660006C65643A2025732C2066696C653A2025A8
:10567000732C206C696E65202564200A00000000F0
:10568000000000000000000000000000000000001A
:10569000E5050008636F756C64206E6F7420706997
:1056A0006E6F75740000000070696E6D6170206D22
:1056B00069732D6D617463680000000070696E6D20
:1056C0006170206E6F7420666F756E6420666F72F5
:1056D000207065726970686572616C0070696E6DCA
:1056E0006170206E6F7420666F756E6420666F72D5
:1056F0002066756E6374696F6E000000BD26000839
:10570000E5260008292700083D270008152700087E
:10571000FC5600081405002003000000004400406F
:10572000930300000A0000000038014093030000CA
:105730001700000000380140930300001B00000028
:1057400000480040930300002B000000004C004084
:105750001304000032000000005000401304000059
:10576000FF000000FFFFFFFF00000000020000003C
:10577000004400409303000009000000003801408D
:10578000930300001600000000380140930300005E
:105790001A00000000480040930300002A000000A7
:1057A000004C0040130400002C000000005000409A
:1057B00013040000FF000000FFFFFFFF00000000D7
:1057C0000000000000000000E5050008E5050008F5
:1057D000E5050008E5050008E5050008E505000801
:1057E000590300080000000000000000FCFFFFFF5C
:1057F00000000000000000000000000000000000A9
:10580000000000000000000099270008C9270008D8
:105810000000000000000000000000000000000088
:105820000000000000000000000000000000000078
:105830000000000000000000000000000000000068
:105840000000000000000000000000000000000058
:105850000000000000000000000000000000000048
:105860000000000000000000000000000000000038
:105870004300000048010020232D302B2000686CDD
:105880004C00656667454647003031323334353663
:10589000373839414243444546003031323334359C
:1058A000363738396162636465660000CA5800089B
:1058B000CD580008D0580008412D46612D66383972
:1058C00030313233343536375D002B2D0030300027
:1058D0007858000020202020202020202028282860
:1058E00028282020202020202020202020202020A8
:1058F00020202020881010101010101010101010F0
:10590000101010100404040404040404040410100F
:1059100010101010104141414141410101010101AC
:105920000101010101010101010101010101011058
:105930001010101010424242424242020202020281
:105940000202020202020202020202020202021029
:1059500010101020000000000000000000000000F7
:105960000000000000000000000000000000000037
:105970000000000000000000000000000000000027
:105980000000000000000000000000000000000017
:105990000000000000000000000000000000000007
:1059A00000000000000000000000000000000000F7
:1059B00000000000000000000000000000000000E7
:1059C00000000000000000000000000000000000D7
:1059D000000000001000000000000000017A5200EA
:1059E000027C0E011B0C0D001000000018000000CE
:1059F000BEECFFFF140000000000000000000000EB
:085A000098A7FF7F01000000E0
:105A080000000000F80500200048E8010000000040
:105A180010580008305800085058000800000000CE
:105A2800000000000000000000000000705800089E
:105A3800000000000000000000000000000000005E
:105A4800000000000000000000000000000000004E
:105A5800000000000000000000000000000000003E
:105A680000000000000000000000000048010020C5
:105A7800D358000861010008951800088D1C00081B
:085A88003D01000800000000D0
:040000050800065D8C
:00000001FF
