:020000040800F2
:10000000004001205D060008A9060008A9060008B6
:10001000A9060008A9060008A906000800000000BB
:10002000000000000000000000000000A906000819
:10003000A906000800000000A9060008A90600089B
:10004000A9060008A9060008A9060008A9060008D4
:10005000A9060008A9060008A9060008A9060008C4
:10006000A9060008A9060008A9060008A9060008B4
:10007000A9060008A9060008A9060008A9060008A4
:10008000A9060008A9060008A9060008A906000894
:10009000A9060008A9060008A9060008A906000884
:1000A000A9060008A9060008A9060008A906000874
:1000B000A9060008A9060008A9060008A906000864
:1000C000A9060008A9060008A9060008A906000854
:1000D000A9060008A9060008A9060008A906000844
:1000E000A9060008A9060008A9060008A906000834
:1000F000A906000800000000A9060008A9060008DB
:10010000A9060008A9060008A9060008A906000813
:10011000A9060008A9060008A906000800000000BA
:10012000A906000800000000000000000000000018
:1001300000000000000000005FF808F110B5054C59
:10014000237833B9044B13B10448AFF30080012383
:10015000237010BDC801002000000000BC6500082D
:10016000084B10B51BB108480849AFF30080084898
:10017000036803B910BD074B002BFBD0BDE810404E
:10018000184700BF00000000BC650008CC0100203B
:10019000C401002000000000154B002B08BF134BCA
:1001A0009D46A3F5803A00218B460F461348144A1A
:1001B000121A04F024F80F4B002B00D098470E4B76
:1001C000002B00D098470020002104000D000D48AE
:1001D000002802D00C48AFF3008003F085FF200018
:1001E000290000F005FA03F001FC00BF0000080040
:1001F000004001200000000000000000C8010020B5
:1002000060180020000000000000000008B572B671
:10021000962003F0BFF9962003F0BCF9F8E700BF81
:100220000F4B30B49D689A682B46B2F1006F04D032
:1002300030BC103043F8201070470A4A05F592751B
:1002400053F8044BAB4242F8044FF9D14FF000523F
:100250001346034C1030A26043F8201030BC7047A6
:1002600000ED00E0FCFFFF1F70B50F4C2368DA685B
:10027000910715D4DA68520709D56FF004020B4EC6
:100280001A615D6A3368EB1AB3F57A7F00D270BDEC
:1002900000F024FA236805F57A7235609A6370BD20
:1002A00003F0EAF82368E5E77C170020E40100206A
:1002B00038B5204B204C5A6A002542F008025A6299
:1002C0009A6942F008029A619A6922F008029A61DA
:1002D00001F034FB194B1A4A1B681A49A2FB03238D
:1002E0009B0C013B4FF0FF32204684E80A00E2609D
:1002F0002561A56001F00CFA2E201349FFF790FF4D
:10030000124B4FF480425A602946204601F018FAF9
:100310002046042101F014FA23680D4C596A28463E
:1003200001F57A729A63DA68216042F00402DA60B9
:1003300038BD00BF003802407C1700204401002077
:1003400083DE1B43000C00406902000800E100E06E
:10035000E401002001F0F2BA036870B51B690021C6
:10036000012204469847431C06460ED023682046C7
:100370001B690021022298472368054631461B6904
:10038000204600229847284670BD70BD02480221D1
:10039000032202F0F7BC00BF40180020084A094BB6
:1003A00010B4026003F58071002453F8042F8242D8
:1003B00008BF1C608B42F8D15DF8044B704700BF4A
:1003C000985C0008E4010020F0B50E4685B036497F
:1003D000054604F020FE20B9344B1B6863B105B01C
:1003E000F0BD2846324904F016FE78B92F4B1B6841
:1003F00043B1012005B0F0BD0190FFF7C7FF0198A0
:1004000005B0F0BDFFF7C2FF0120E8E72846294903
:1004100004F001FE10B3284B002402E00134402C0C
:1004200021D053F8042F002AF8D12B783A2B33D05F
:10043000294602A802F0D8FD02A802F02BFE90B1D6
:1004400002A802F00DFE88B102A802F013FE0346D6
:100450004BB11A4AE01C42F82430C0E7134B1B682A
:10046000B3B10220BBE74FF0FF30B8E702A802F0BB
:10047000E7FD05460028F6D0036802A89F6802F051
:10048000DDFD26F4803201462846B8470346DFE703
:10049000FFF77CFF0220A2E72846094902AA04F0E0
:1004A0004BFD029BD4E700BF785C000810170020CA
:1004B000885C0008805C0008E4010020E80100205E
:1004C000BC5C000802280ADD074AC31E52F823005C
:1004D000002142F8231020B103685B681847002010
:1004E00070474FF0FF307047E8010020022812DC0F
:1004F0000E4B70B51B680C4616460BB9FFF746FF4E
:10050000A51936B114F8011B094802F061FDAC428F
:10051000F8D1304670BD074B033853F8200010B1B6
:1005200003681B6818474FF0FF3070471017002012
:1005300040180020E801002002280DDC0C4B10B50B
:100540001B680C460BB9FFF721FF0A4802F034FD87
:1005500001232070184610BD074B033853F82000C4
:1005600010B103689B6818474FF0FF331846704777
:100570001017002040180020E8010020022807DDA5
:10058000064B033853F8200020B10368DB68184796
:10059000012070474FF0FF30704700BFE801002096
:1005A000022807DD064B033853F8200020B103680A
:1005B0001B691847002070474FF0FF30704700BF9D
:1005C000E8010020022808B504D84FF400534B601E
:1005D000002008BD03F004FA092303604FF0FF3048
:1005E00008BD00BF08B5012003F000FA704700BF46
:1005F00008B5FFF7AFFEFFF7F9FFBDE8084002F0CE
:100600000FB800BF074A13681918EFF3088081423A
:1006100002D2184611607047034B0C221A604FF04B
:10062000FF307047400100205C1800200546074C51
:1006300008B52368986803F0F5FA2368D86803F0D2
:10064000F1FA05B9FEE7FFF7E1FDFBE7AC01002099
:10065000002104F0BCBB00BF03F022BB0C48854660
:10066000002103E00B4B5B58435004310A480B4B0D
:1006700042189A42F6D30A4A02E0002342F8043BA9
:10068000084B9A42F9D301F03DFAFFF785FDFEE7EA
:1006900000400120F06500083C010020C801002056
:1006A000C801002060180020FEE70000704700BF6E
:1006B00008B5094B03201A6842F004021A601A6850
:1006C00042F002021A6000F0E5F90F20FFF7F0FD9A
:1006D000FFF7ECFF002008BD003C0240024A13680F
:1006E00001331360704700BFE8020020014B186817
:1006F000704700BFE8020020704700BF002800F0EC
:100700009180F0B590F8493083B00446002B5CD05E
:100710004548022384F849304168626821F4403139
:100720000A4342604FF4007191FAA1F1B1FA81F1EC
:10073000666A93FAA3F3B3FA83F36769E568E26B39
:10074000206A8A403D43616B284306FA03F3024363
:10075000102942EA030202D0A36B0B431A43236819
:100760002769196811F040011AD098682F49012FA4
:1007700001EA000141EA02019960196B34D021F0CD
:10078000F871196399682A4B0B40934225D00423D2
:1007900084F84930E36C01200343E36403B0F0BD07
:1007A000E56AA0680195E569012F08BF4FF48071E3
:1007B00028430143A06902430198012823D05D68C2
:1007C0001C48284001435960CFE71B4A136A43F095
:1007D00001031362FFF790FF9AE700200123E06412
:1007E00084F8493003B0F0BD4FF0F87696FAA6F6DB
:1007F000B6FA86F6A56A21F0F870013DB54045EAE3
:1008000000011963BEE7002ED9D14FF4604696FA75
:10081000A6F6B6FA86F6256B41F40060691EB14073
:100820000143CCE7012070470027014089F1FFC058
:10083000FEFF80BFFF16FCFC0038024070B5054685
:100840000C46FFF753FF06462A6801E0611C16D1EB
:1008500013689B07FAD5AB69FBB195F84930042BB7
:1008600022D095F84930352B1ED095F8493000201C
:10087000252B0CBF3523152385F8493070BD24B1D5
:10088000FFF734FF801B8442DED20322002385F869
:10089000492085F84830012070BD6FF012031360C5
:1008A00095F84930042BDCD1002070BD0368986DA9
:1008B000704700BF90F84830012B3DD04B680122B3
:1008C000062B70B480F84820026823D803EB83031A
:1008D000053B166C0C681F259D4026EA050504FAA9
:1008E00003F32B431364092C28D88B68556904EB58
:1008F000440107268E4003FA01F125EA06030B4363
:100900005361103C012C36D970BC002380F848306C
:10091000184670470C2B34D9122B40D803EB8303B5
:10092000413B966B0C681F259D4026EA050504FA9D
:1009300003F32B439363D6E702207047132C04EB99
:10094000440389680BD91D2C39D83C3BD568072650
:100950009E40994025EA06030B43D360D1E71E3B36
:10096000156907269E409940103C25EA06030B4373
:10097000012C1361C8D81D4A536843F40003536027
:10098000C2E703EB8303233BD66B0C681F259D4016
:1009900026EA050504FA03F32B43D363A3E7182BD8
:1009A00003EB830315D85F3B566B0C681F259D40F6
:1009B00026EA050504FA03F32B43536393E75A3BF6
:1009C000D56D07269E40994025EA06030B43D36563
:1009D00097E77D3B166B0C681F259D4026EA0505B1
:1009E00004FA03F32B4313637DE700BF00270140A4
:1009F00003681A68520601D5002070479A6870B5DE
:100A000042F001029A600546FFF770FE064604E0D8
:100A1000FFF76CFE801B022806D82B681B6813F0BA
:100A20004004F5D0002070BD042385F84930EB6CFC
:100A300085F8484043F00103EB64012070BD00BF1E
:100A400090F84820012A01D102207047012310B5F7
:100A500080F848300446FFF7CBFF012815D094F802
:100A600049306FF00202222B0CBF3223122384F88C
:100A7000493023680021E1641A609A6812F0405FEF
:100A800003D19A6842F080429A60002384F848308B
:100A900010BD00BF4FF6FF02064900F00700CB680B
:100AA0001A4042F0BF6343F4003343EA0023CB60B3
:100AB000704700BF00ED00E02DE9F04FDFF8D8C12E
:100AC000D1F80080DFF8D491002303E00133102B2C
:100AD00000F0858001229A4002EA08049442F5D190
:100AE0004D685F0025F0100E0322BA40BEF1020FE0
:100AF0006FEA020275D0D0F800A005F0030602EA02
:100B00000A0ABE400EF1FF3E4AEA0606BEF1010F98
:100B1000066040F28680C66832408E68BE4016434A
:100B2000EA00C660D2D5D9F8206023F0030246F06F
:100B3000010602F18042C9F8206002F5803203F01C
:100B4000030E97684FEA8E0E0F2606FA0EF627EA76
:100B500006074A4EB04277D006F58066B04275D09F
:100B6000474EB04276D0474EB04277D0464EB04264
:100B700078D0464EB04279D0454EB0427AD0454EFC
:100B8000B0420CBF0726082606FA0EF63E439660D2
:100B9000E643DCF80020EF034CBF22433240CCF8A0
:100BA0000020DCF80420AF034CBF22433240CCF8D5
:100BB0000420DCF80820EF024CBF22433240CCF87E
:100BC0000820DCF80C20AD0203F1010354BF06EA53
:100BD00002041443102BCCF80C407FF47BAFBDE82B
:100BE000F08F4FEAD30E00EB8E0E03F0070BDEF80A
:100BF00020A04FEA8B0B0F2606FA0BF62AEA060A0C
:100C00000E6906FA0BF64AEA0606CEF82060D0F81E
:100C100000E005F0030602EA0E0EBE404EEA0606AC
:100C20000660866802EA060ECE68BE404EEA0606F8
:100C30008660D0F804E0C5F300162EEA040E9E404C
:100C40004EEA0606466066E700269FE7012606FA9A
:100C50000EF69BE7022606FA0EF697E7032606FA3B
:100C60000EF693E7042606FA0EF68FE7052606FA37
:100C70000EF68BE7062606FA0EF687E7000002401E
:100C800000080240000C0240001002400018024020
:100C9000001C0240001402400004014000380240E1
:100CA000F8B503680446DE074BD5C2498A6802F0EE
:100CB0000C02082A00F036818A6802F00C020C2A25
:100CC00000F02C81BC4B00221A70FFF70FFD4FF48F
:100CD00000370646B74D05E0FFF708FD801BC82822
:100CE00000F2B58197FAA7F32A6897FAA7F3B3FA47
:100CF00083F303F01F0322FA03F3D907ECD4AE4BBE
:100D000022791A706368002B00F05682FFF7EEFC20
:100D10004FF400370646A74D05E0FFF7E7FC801BC0
:100D2000C82800F2948197FAA7F32A6897FAA7F3E4
:100D3000B3FA83F303F01F0322FA03F3DA07ECD5C7
:100D40002368980743D59B498A6802F00C02042A5D
:100D500000F0EB818A6802F00C020C2A00F0E181BD
:100D6000E268002A00F0B881012292FAA2F3B3FAF5
:100D700083F39B0003F1844303F58E031A60FFF7AE
:100D8000B5FC022706468B4D05E0FFF7AFFC801B44
:100D9000642800F25C8197FAA7F386492A6897FADB
:100DA000A7F3B3FA83F303F01F0322FA03F3DB077D
:100DB000EBD54A684FF4F85090FAA0F0B0FA80F002
:100DC000236922F4F852834013434B602368D90609
:100DD0005ED4190725D56269002A00F05C810122E2
:100DE00092FAA2F3B3FA83F37449022741F823205D
:100DF000FFF77CFC6F4D064605E0FFF777FC801B94
:100E0000642800F2248197FAA7F36A6B97FAA7F394
:100E1000B3FA83F303F01F0322FA03F3DA07ECD5E6
:100E20002368580700F19580636A7BB3614DAA6817
:100E300002F00C020C2A00F08A80022B4FF0807323
:100E400000F0D58193FAA3F3B3FA83F39B0003F187
:100E5000844303F58E0300221A60FFF747FC4FF02E
:100E60000074064605E0FFF741FC801B642800F291
:100E7000EE8094FAA4F32A6894FAA4F3B3FA83F305
:100E800003F01F0322FA03F3DB07ECD40020F8BDC4
:100E9000484D226A696821F460410A436A60AA6881
:100EA00012F00C0F00F0D580A2694FF48073002A75
:100EB00000F05D8193FAA3F3B3FA83F39B0003F18F
:100EC000844303F58E0301221A60FFF70FFC4FF4F1
:100ED0000077064605E0FFF709FC801B642800F256
:100EE000B68097FAA7F333492A6897FAA7F3B3FABB
:100EF00083F303F01F0322FA03F3DB07EBD54A6801
:100F00004FF07F4090FAA0F0B0FA80F0E36922F051
:100F10007F42834013434B6023685AE78A68D503B6
:100F20007FF5D0AE4FF4003292FAA2F12149096860
:100F300092FAA2F2B2FA82F202F01F0221FA02F24F
:100F4000D0077FF5FEAE6268012A3FF4FAAE0120B9
:100F5000F8BD18491A4B4A6A1D4642F080524A624F
:100F60001A6842F480721A60FFF7C0FB064604E07C
:100F7000FFF7BCFB801B642869D82B68D905F7D51F
:100F80004FF4807393FAA3F3B3FA83F30B4A00216F
:100F900042F823104FF4806393FAA3F3B3FA83F378
:100FA00042F82310FFF7A2FB4FF400770646014DED
:100FB0000DE000BF00380240023802408006474280
:100FC00000700040FFF792FB801B64283FD897FA1F
:100FD000A7F36A6B97FAA7F3B3FA83F303F01F033F
:100FE00022FA03F313F00103ECD1A268002A40F0C7
:100FF00055814FF4807191FAA1F1B1FA81F1C8489D
:101000004FF4806340F8212093FAA3F3B3FA83F3FB
:1010100040F82320A368012B00F05581FFF766FB01
:101020000646C04D4FF4007797FAA7F36A6B97FA1C
:10103000A7F3B3FA83F303F01F0322FA03F3DB07EA
:101040007FF5F2AEFFF752FB801B6428ECD903203A
:10105000F8BD4FF4007292FAA2F1296892FAA2F256
:10106000B2FA82F202F01F0221FA02F2D20703D58D
:10107000A269012A7FF46BAFAA4D4FF07F406968E7
:1010800090FAA0F0B0FA80F0E26921F07F4182404E
:101090000A436A609DE6012393FAA3F3B3FA83F34C
:1010A0009F49022741F82320FFF720FB9D4D06466C
:1010B00004E0FFF71BFB801B6428C8D897FAA7F34E
:1010C0006A6B97FAA7F3B3FA83F303F01F0322FACC
:1010D00003F3DB07EDD4A3E6012393FAA3F3B3FAFA
:1010E00083F39B0003F1844303F58E031A60FFF73B
:1010F000FDFA022706468B4D04E0FFF7F7FA801B46
:101100006428A4D897FAA7F32A6897FAA7F3B3FA42
:1011100083F303F01F0322FA03F3D807EDD4236807
:1011200055E68A68D1033FF51BAE022292FAA2F17E
:101130007C49096892FAA2F2B2FA82F202F01F0226
:1011400021FA02F2D20703D5E268012A7FF4FFAE4A
:10115000744D4FF4F850696890FAA0F0B0FA80F03E
:10116000226921F4F85182400A436A602FE693FA1B
:10117000A3F3B3FA83F39B0003F1844303F58E03D7
:101180001A60FFF7B3FA4FF40077064605E0FFF761
:10119000ADFA801B64283FF65AAF97FAA7F32A6886
:1011A00097FAA7F3B3FA83F303F01F0322FA03F3CA
:1011B000D807ECD423680CE6FFF798FA4FF4003711
:1011C0000646584D05E0FFF791FA801BC8283FF608
:1011D0003EAF97FAA7F32A6897FAA7F3B3FA83F317
:1011E00003F01F0322FA03F3DB07ECD4A8E593FA1C
:1011F000A3F3B3FA83F39B0003F1844303F58E0357
:1012000000221A60FFF772FA4FF00077064605E0F9
:10121000FFF76CFA801B64283FF619AF97FAA7F323
:1012200040492A6897FAA7F3B3FA83F303F01F0340
:1012300022FA03F3D807EBD4E56AA06A226B8B6825
:101240002843024323F47D0313438B604FF08073E4
:1012500093FAA3F3B3FA83F39B0003F1844303F5FA
:101260008E0301221A600C46FFF740FA4FF000751A
:10127000064605E0FFF73AFA801B64283FF6E7AE22
:1012800095FAA5F3226895FAA5F3B3FA83F303F070
:101290001F0322FA03F3DA07ECD5F7E5012A2CD075
:1012A0004FF4807191FAA1F1B1FA81F11C484FF429
:1012B000806240F8213092FAA2F3B3FA83F301225C
:1012C00040F82320A6E6FFF711FA0646154D4FF425
:1012D000007797FAA7F36A6B97FAA7F3B3FA83F349
:1012E00003F01F0322FA03F3DA073FF59DADFFF782
:1012F000FDF9801B6428ECD9A9E64FF4806090FAD0
:10130000A0F0B0FA80F0064D4FF4807145F820301F
:1013100091FAA1F3B3FA83F345F823207AE600BFEC
:101320008006474200380240944A2DE9F041136894
:101330000C4603F001038B4205460BD2012900F055
:1013400081801168012021F001010C4314601368B1
:10135000BDE8F08103689E0706D58948AA688168C0
:1013600021F0F0010A438260D80711D4012C00F06B
:10137000D580824A136823F0010323431360136866
:1013800003F00103A34200F0A9800120BDE8F08131
:101390006B68022B00F0BC80032B00F0C580012B92
:1013A0000CBF02224FF4007292FAA2F1744909684C
:1013B00092FAA2F2B2FA82F202F01F0221FA02F2CB
:1013C000D107E2D56E4E41F28838B26822F00302AE
:1013D0001343B360FFF78AF96B680746022B15D0F9
:1013E000032B1ED0012B06D126E0FFF77FF9C01B8F
:1013F000404500F29080B36813F00C0FF5D1B5E7CB
:10140000FFF774F9C01B404500F28580B36803F014
:101410000C03082BF4D1A9E7FFF768F9C01B40457E
:1014200079D8B36803F00C030C2BF5D19EE7FFF7D6
:101430005DF9C01B40456ED8B36803F00C03042B64
:10144000F5D193E7136843F004031360136843F086
:10145000010313601368D80797D52B68990706D541
:101460004748AA68816821F0F0010A438260DA07E0
:1014700035D56B68022B7ED0032B79D0012B0CBFA6
:1014800002224FF4007292FAA2F13D49096892FAE1
:10149000A2F2B2FA82F202F01F0221FA02F2D70798
:1014A0007FF573AF364C41F28837A26822F0030211
:1014B0001343A360FFF71AF96B680646022B3BD073
:1014C000032B44D0012B05D14CE0FFF70FF9801B13
:1014D000B84220D8A36813F00C0FF6D12B685A0736
:1014E00006D52748EA68816821F4E0610A438260F2
:1014F0001B0707D5224A2969936823F4605343EAFE
:10150000C10393600F20FEF7D3FE0020BDE8F081F9
:101510004FF4003248E70320BDE8F081174A136812
:1015200043F00403136024E74FF000723CE7FFF739
:10153000DDF8801BB842EED8A36803F00C03082B3B
:10154000F5D1CBE7FFF7D2F8801BB842E3D8A36808
:1015500003F00C030C2BF5D1C0E7FFF7C7F8801B95
:10156000B842D8D8A36803F00C03042BF5D1B5E733
:101570004FF0007287E74FF4003284E7003C0240EE
:101580000038024020498B6803F00C02082A38D04A
:101590000C2A12D0042A0ED04B684FF4604292FA03
:1015A000A2F2B2FA82F203F46043D34001334FF463
:1015B0000040984070471548704710B44FF47012BF
:1015C00092FAA2F2B2FA82F203F47010104C20FAEE
:1015D00002F2A05C4FF4400292FAA2F2B2FA82F256
:1015E0000C4C03F44003D340E35C8968B0FBF3F098
:1015F000CB034CBF084B054B5DF8044B03FB00F0DD
:1016000070470548704700BF003802400024F400CE
:10161000CC5C0008E85C000800127A0008B5FFF70F
:10162000B1FF084BF0229B6892FAA2F2B2FA82F262
:10163000054903F0F003D340CA5C044BD040186066
:1016400008BD00BF00380240D85C000844010020FB
:1016500008B5FFF7E3FF074B4FF4E0629B6892FA8F
:10166000A2F2B2FA82F2044903F4E063D340CB5C05
:10167000D84008BD00380240D85C000808B5FFF724
:10168000CDFF074B4FF460529B6892FAA2F2B2FA78
:1016900082F2044903F46053D340CB5CD84008BDC8
:1016A00000380240D85C0008B0F1804F10B40368E5
:1016B00017D0154A904214D002F58062904210D0A3
:1016C00002F5806290420CD002F57C42904208D034
:1016D00002F58062904208D002F58062904208D103
:1016E00003E04A6823F070031343CA6823F440738D
:1016F00013438C68096801220360C46281625DF84B
:10170000044B4261704700BF00040040704700BFB7
:10171000A0B190F8353010B5044663B121460223DC
:1017200051F8040B84F83530FFF7BEFF012384F82D
:101730003530002010BDFFF7E9FFEFE701207047CB
:10174000036801228A40196A90B221EA00011962F5
:10175000196A00200A431A621A6842F001021A60EC
:10176000704700BF2DE9F04106460568C0682C6946
:10177000376924F4405420432861B168EB687269EA
:10178000F069394323F416430A43024323F00C0360
:101790001343EB606A69B36922F440721343B0F5F6
:1017A000004F6B614C4B34D09D4256D0FFF750FF39
:1017B000746800EB800000EB8000A400B0FBF4F440
:1017C000FFF746FF454F7268A7FB043400EB80002B
:1017D000640900EB800092002401B0FBF2F8FFF7EF
:1017E00037FF716800EB800000EB80008900B0FBE0
:1017F000F1F1A7FB01316422490902FB11821201B8
:101800003232A7FB0223C3F343132343AB60BDE88B
:10181000F0819D423DD0FFF71BFF746800EB800014
:1018200000EB80006400B0FBF4F4FFF711FF726876
:1018300000EB800000EB80005200B0FBF2F8FFF7F5
:1018400007FF264F7168A7FB043400EB8000640992
:10185000240100EB80004900C9E7FFF70FFF74681F
:1018600000EB800000EB8000A400B0FBF4F4FFF775
:1018700005FF1A4F7268A7FB043400EB800092004A
:10188000640900EB80002401B0FBF2F8FFF7F6FEDC
:10189000A7E7FFF7F3FE746800EB800000EB800021
:1018A0006400B0FBF4F4FFF7E9FE0C4F00EB80009E
:1018B000A7FB0434736800EB80005A00B0FBF2F819
:1018C000FFF7DCFE7168640900EB8000240100EB87
:1018D000800049008BE700BF003801401F85EB51B5
:1018E000704700BF38B338B590F839300446FBB1C3
:1018F0002268022384F83930D368204623F4005349
:10190000D360FFF72FFF236800211A69012522F415
:1019100090421A615A69084622F02A025A61DA682E
:1019200042F40052DA6084F83A1084F8395038BD35
:10193000FFF7D6FFDCE70120704700BF1C4B9B6818
:1019400003F00C030C2B08D8DFE803F007070707A8
:10195000190707071B0707071D00154A4FF4004327
:101960005268C2F3423201329340114A11489268E0
:101970001149C2F30312825CD3400B6070470F4BD6
:10198000F3E70F4BF1E70A490E488A688B688968CC
:10199000C3F38153C2F38342805C5A1CCB0355BF0F
:1019A000064B0749434301FB00F3B3FBF2F3DCE7CB
:1019B00000380240EC5C0008440100200024F400E0
:1019C00000127A00FC5C0008022393FAA3F2244977
:1019D0000A6893FAA3F3B3FA83F303F01F0322FA1E
:1019E00003F3DB0729D44B6A30B51E4A43F080531A
:1019F0004B62136893B023F4C053032143F4006394
:101A000013600591B0B1052306934FF480034FF4A2
:101A100080314FF400220024022505A81193089478
:101A20000E950F911092FFF73BF9034638B120460F
:101A300013B030BD01230693E7E70020704703226F
:101A40000F246846012102930393049300940192AA
:101A5000FFF76AFCB0FA80F0400913B030BD00BF58
:101A600000380240007000401C4AF0B5536A1C4C1C
:101A700043F080535362236893B023F4C05343F47C
:101A80000063236000250327012602214FF48022F2
:101A90004FF4800305A8059706950F9508960E91BB
:101AA00010921193FFF7FCF8A0B92246536813F087
:101AB0001003FBD103220F246846012102930393F4
:101AC000049300940192FFF72FFCB0FA80F04009D4
:101AD00013B0F0BD284613B0F0BD00BF003802407F
:101AE0000070004008B50120FFF76EFF00B108BD8F
:101AF000FFF76AFF0028FAD1FFF7B6FF0028F6D1FA
:101B0000FEE700BF70B5164C164B2268164842F42B
:101B100080722260A26815491340A3602368144AAA
:101B200023F0885323F0011323602368002623F455
:101B300080232360A3684FF0006523F47D03A36036
:101B4000E66085601160FEF7B3FDFFF7CBFFA36988
:101B500043F00803A361A36923F00803A36170BDE8
:101B6000003802400CC0FF8800ED00E00024F400C3
:101B700044010020094B1B6803445B7813F0970372
:101B800005D02C2805D02A3818BF012002E01846BD
:101B900000E0002000F00100704700BF4801002075
:101BA000A0F13003DAB2092A01D818467047A0F133
:101BB0004103052B01D837387047A0F16103052B8D
:101BC00094BF57384FF0FF307047000070B504469F
:101BD0000E4603F02AFA53281ED82378242B1BD153
:101BE0001B4B601C19680025044610F8013BABB183
:101BF0002A2B06D0CA18527812F0970F0ED05D40EB
:101C0000F2E76078FFF7CCFF431C064604D0A078CB
:101C1000FFF7C6FF421C14D1002070BD002EFBD17F
:101C2000237863B120460B4903F0F5F938B120461B
:101C3000094903F0F0F9B0FA80F0400970BD0120C5
:101C400070BD40EA06108542E6D10334E8E700BFE4
:101C500048010020225E0008215E00080EB42DE934
:101C6000F04F0646044686B00FAB53F8047B4FF0A6
:101C700000080493013F17F8013F53B13B2B05D0F7
:101C80004CB9B8F1000F40F0D68110E04FF00108D8
:101C9000F1E70120F6E1642B16D124782046FFF706
:101CA00069FF68B14E2C0DD003D8452C0AD0002016
:101CB000E8E1532C01D0572CF9D14FF0FF3413E059
:101CC000044611E001240FE023D9692B40F0008184
:101CD000204605A90A2203F04FFA059B044618780E
:101CE000FFF748FF0028E2D1049B1A1D04921B68ED
:101CF0001C6035462C782E4620460135FFF73AFF0A
:101D00000028F7D12C2C02D12E462C46B3E70446EE
:101D1000B1E7542B76D1049B1A1D0492D3F800909E
:101D2000002C61D025782846FFF724FF00285BD0DF
:101D3000B04B611ED3F800C004F1050E11F8012F5D
:101D40006244527802F0040202F0FF00002A00F020
:101D500099817145F2D162788DF808508DF809208B
:101D6000A27800258DF80C20E27829468DF80D2008
:101D7000227902A88DF81420627901938DF815203C
:101D80000A228DF80A508DF80E508DF8165003F087
:101D9000F3F929460A22834603A803F0EDF90A2243
:101DA0008246294605A803F0E7F9A279019B2E2A6D
:101DB00018D12946D3F800C08F4A04F1060E0D341D
:101DC0001EF8013F0CEB03056D786D0701D45143FC
:101DD0000FE0A645FBD00A25303B05FB013192FB05
:101DE000F5F2EDE7294604E04FF0FF3108468A4658
:101DF0008B46C9F800B0C9F804A0C9F80800C9F8B2
:101E00000C1076E751D8442B7FF451AF049B257812
:101E10001A1D28460492D3F80090FFF7ABFE40B994
:101E20004FF0FF308246044689E81004C9F80800E4
:101E30005FE7704B621ED3F800E0611D12F8013FAE
:101E400073445B7803F0040303F0FF00002B00F001
:101E500019818A42F2D163788DF808508DF80930E3
:101E6000A37800258DF80C30E37829468DF80D30E5
:101E7000237902A88DF8143063790A228DF8153081
:101E80008DF80A508DF80E508DF8165003F074F945
:101E9000294604460A2203A803F06EF92946824621
:101EA0000A2205A803F068F9BEE75F2B3FF421AFD3
:101EB000632B7FF4FCAE24782046FFF75BFE0028FE
:101EC00008BF0024049B1A1D1B6804921C7010E7B5
:101ED0007BD8662B7FF4EBAE04F1FF3B0024254654
:101EE000444B4FF0FF391A681BF801AF019250467E
:101EF000FFF740FE019A002848D0BAF12B0F04D119
:101F000055B9B9F1FF3F07D13CE0BAF12D0F03D12C
:101F100015B9B9F1FF3F37D002EB0A035B7803F044
:101F2000040303F0FF00BBB1AAF1300A6FF00043D5
:101F3000CAEB03030A2193FBF1F3B9F1FF3F08BF9A
:101F40004FF00009994501DD74BBB0E601FB09A91A
:101F5000002CC9D04C43C7E7BAF12E0F04D1002C96
:101F600040F090800124BFE7BAF1200F40F08A8052
:101F7000002D40F08780B9F1FF3F7FF498AE002C30
:101F8000B2D094E60125AFE74D46ADE7234615B93B
:101F9000002C70D103E0B9F1FF3F05D172E0B9F137
:101FA000FF3F09D001246BE0002C14BF234601231E
:101FB0001DB105FB09F900E0A946049A111D12683C
:101FC0000491C2F80090536093E6732B16D1049BE2
:101FD0001A1D04921D684CB1013C14F8019F48463B
:101FE000FFF7C8FD10B105F8019BF6E700232B7041
:101FF0007FE600BF4801002040420F00742B7FF4B1
:1020000056AE2378242B7FF452AE254604F1050901
:1020100015F8010FFFF7AEFDA0B34D45F8D1049BB5
:102020001A1D04921B6854F8012F1A6022791A7144
:1020300000225A715DE6632B3FF444AF0ED8542B57
:102040003FF469AE5F2B3FF454AE442B7FF42FAEC8
:10205000049B1A1D0492D3F80090E1E6662B0ED083
:1020600003D8642B3FF440AE21E6692B3FF43CAE2D
:10207000732BACD01BE6B9F1FF3F01D117E6A146A7
:1020800023469AE706B0BDE8F04F03B0704700BFA3
:1020900013B50446FFF79AFD08B9FF203FE020463C
:1020A00020496A46FFF7DAFD0028F6D00DF102005C
:1020B0001D4902F0B0FF38B30DF102001B4902F0D8
:1020C000AAFF18B30DF10200194902F0A4FFF8B1FC
:1020D0000DF10200174902F09EFFD8B10DF1020088
:1020E000154902F098FFB8B10DF10200134902F052
:1020F00092FF98B10DF10200114902F08CFF002807
:102100000CBF072000200AE0012008E0022006E0C2
:10211000032004E0042002E0052000E0062040B295
:1021200002B010BD055D0008075D00080B5D0008EA
:102130000F5D0008135D0008175D00081B5D0008B7
:102140001F5D000830B5044691B00DF12B030093DC
:1021500000F1140301930BAB029300F11C030393F2
:102160000CAB049300F12403059300F12C030693B8
:1021700000F13403079300F1400308930DAB09937A
:1021800008460EAA11492346FFF768FD0546D0B15F
:102190000DF13A000E4902F03EFF98B99DF82B3040
:1021A000A3F1410253425341237462690B9B534391
:1021B000E26963610C9B5343226CE3610D9B5343C3
:1021C000236400E00025284611B030BD235D0008DF
:1021D000075D000830B5044691B000F1100300938C
:1021E0000CAB019300F1180302930DAB039300F1C4
:1021F0002003049300F12403059300F128030693C0
:1022000000F13003079300F13803089300F13C0319
:10221000099300F144030A9300F148030B93084625
:102220000EAA0C492346FFF719FD054678B10DF1BA
:102230003A00094902F0EFFE40B922690C9B534372
:10224000A26923610D9B5343A36100E0002528464A
:1022500011B030BD305D00080B5D000800B500F125
:1022600010028BB0009200F11802019200F12002DE
:10227000029200F12802039200F13002049200F170
:102280003802059200F1400203460692084608AA69
:102290000749FFF7E3FC38B10DF12200054902F0D0
:1022A000BAFEB0FA80F040090BB05DF804FB00BF45
:1022B0005D5D0008175D000800B5021D95B0009235
:1022C00000F10802019200F10C02029200F11002EA
:1022D000039200F11402049200F11802059200F139
:1022E0001C02069200F12002079200F124020892DB
:1022F00000F12802099200F12C020A9200F130024A
:102300000B9200F134020C9200F138020D9200F1B0
:102310003C020E9200F140020F9200F14402109232
:1023200000F1480203461192084612AA0749FFF736
:1023300095FC38B10DF14A00054902F06CFEB0FA87
:1023400080F0400915B05DF804FB00BF675D000830
:102350001B5D000830B505468DB00DF123030093D9
:1023600000F10803019309AB029300F110030393FA
:102370000DF12503049300F1180305930DF12603D5
:1023800006930DF12703079308460AAA13492B4623
:10239000FFF764FC0446E8B10DF12A00104902F091
:1023A0003AFEA0B99DF82330542B12D19DF8243069
:1023B0004D2B0ED19DF825304E2B0AD19DF826309D
:1023C0004B2B06D19DF8273085F8203002E0002401
:1023D00000E0044620460DB030BD00BF7D5D000822
:1023E0001F5D00087047000010B50446064B5430CE
:1023F00003F1180240F8543C4C330260436000F093
:102400002BFF204610BD00BF70600008A0F15400F3
:10241000FFF7EABFA0F15800FFF7E6BF10B504468A
:1024200003F01CFC204610BD10B50446044B0360AD
:1024300000F068FF204600F0A1FF204610BD00BF5D
:102440002861000810B50446FFF7EEFF204603F0B0
:1024500005FC204610BD00002DE9F0411A49ADF6FB
:10246000880D0F68CD6B0C6CD1F844808E6B40F6F4
:102470007402483105A801F0B7FE3846CDF8008057
:1024800001F074FA2A46019023461048314602F0C2
:1024900089FB05AC3225D4F8D4320D480093D4F82A
:1024A000C43304340193D4F8B03402932168D4F8CF
:1024B000F020D4F8E03102F075FB013DEBD10DF6D0
:1024C000880DBDE8F08100BF10040020895D000880
:1024D000AA5D00082DE9F047484DADF6D80D2C78DF
:1024E00014B1012C30D085E00DF5096000F0ECF955
:1024F0000DF509614822424801F076FE414800F09E
:10250000BDFA8146404800F0B9FA80463F4800F0E5
:10251000B5FA07463E4800F0B1FA06463D4800F0DD
:10252000ADFA82463C4800F0A9FA33460190CDF856
:1025300000A0029403940494484641463A4600F0B1
:1025400023FA01232B7055E000F0DCF904462D48F6
:1025500074B300F093FA81462B4800F08FFA80465E
:102560002A4800F08BFA0746294800F087FA064609
:10257000284800F083FA0446274800F07FFA0094C8
:102580000024334641463A4601900294484603945B
:10259000049400F0F9F906A800F00EFA06A940F636
:1025A00074021E4801F020FEFFF756FF2C7021E058
:1025B00000F064FA8046144800F060FA07461348B9
:1025C00000F05CFA0646124800F058FA0546114839
:1025D00000F054FA8146104800F050FACDF800900F
:1025E00001900294039404944046394632462B46A7
:1025F00000F0CAF90DF6D80DBDE8F087D40C002024
:102600001004002098030020CC0C0020A003002020
:10261000EC020020F4020020A8030020580400204F
:1026200008B50A484FF47A3100F092FD00F09EF8A8
:102630000749084800F038FE0748084B44F6206177
:1026400083610023C36200F065FEFEE7FC02002008
:10265000F35D000850030020B0030020D5240008DB
:1026600010B50446FFF7C0FE204603F0F7FA2046F7
:1026700010BDA0F15400F3E7A0F15800F0E700000E
:102680002DE9F0412A4DDFF8E0800024294E2A4F41
:10269000284600F05FFEC5F80080AC61EC62284679
:1026A000264D3946324601F087F9284600F052FEA1
:1026B000C5F80080AC61EC622846214D39463246AF
:1026C00001F07AF9284600F045FE3246AC61EC6232
:1026D00028463946C5F8008001F06EF919482146B0
:1026E00000F07CF91848012100F078F9174804211E
:1026F00000F074F91648102100F070F9154D1648D5
:10270000212100F06BF91548202100F067F92346DC
:1027100002210322284600F0CFFC32462846104909
:1027200001F04AF90F4B4FF47A729A64BDE8F081D8
:10273000680300203C01002029240008B003002089
:10274000E003002098030020CC0C0020A003002010
:10275000EC020020FC020020F4020020A80300206C
:10276000E9230008100400202861000870B5164D08
:102770004FF4E131284600F0EBFC144E00222846CD
:10278000134900F0EDFC05F15404012000F002FFB4
:102790003146204600F072FD3146204600F06EFDC5
:1027A0003146204600F06AFD28464FF4165100F0ED
:1027B000CFFC2046074900F061FD2046BDE870408F
:1027C000054900F05BBD00BFDC0C0020115E000875
:1027D00085280008245E0008365E000810B5002138
:1027E00094B00446FFF754FC0138062846D8DFE8C9
:1027F00000F0041A4545292E330001A82146FFF7B1
:10280000A1FC00283AD01E4B0E9ADA620F9A1A6386
:10281000109A5A63019A9A63029ADA63039A1A64C5
:10282000049A5A642AE001A82146FFF7D3FC28B392
:102830000D9801F047F8124C2060059801F042F81D
:10284000E0601BE001A82146FFF708FD16E001A8A3
:102850002146FFF731FD11E001A82146FFF77AFD7F
:1028600060B1019801F02EF8054CE061039801F089
:1028700029F82062059801F025F8606114B010BDB8
:102880004C0E002008B50C4800F004FD0B4BC2B202
:1028900019680B480A2A42541A6802D001321A6099
:1028A00008BD002119600244064B517001221A70C4
:1028B000BDE80840FFF792BF300D0020D80C002083
:1028C000480D0020480E002008B50249482201F0BA
:1028D0008BFC08BD4C0E002010B5074C2A21204669
:1028E0002B22002300F0E8FB2046BDE810400349FE
:1028F000034A01F061B800BFDC0C0020E9230008A6
:102900003C010020044A00201368322B15BF01331C
:102910001060136001207047940E002010B5064B24
:102920001C68064B43F8240003EB8400C0F8F01049
:10293000C0F8E02110BD00BF940E0020980E0020CA
:1029400030B5064B1C68064B03EB8405C5F8D00276
:10295000C5F8C013C5F8B02430BD00BF940E0020E8
:10296000980E002030B5064B1C68064B03EB84051F
:10297000C5F8A005C5F89016C5F8802730BD00BF82
:10298000940E0020980E00202DE9F8439946DDF8BA
:102990002080099F0A9E0B9D0C9CFFF7BFFF4846B5
:1029A00041463A46FFF7CCFF304629462246BDE86D
:1029B000F843FFF7D7BF000008B5034940F674029B
:1029C00001F012FC08BD00BF980E0020024B4FF42E
:1029D0007A721A60704700BF980E0020F0B50C465E
:1029E00005468FB01F49204600F026FD28600130C3
:1029F00032D020461B4900F0EBFC1B4B2C711C68AD
:102A0000002C27D10126022201A81E6001920A94FF
:102A10000496FEF745F92A68144B15491A600A6AAC
:102A20004FF4806742F400720A6210254FF40032BE
:102A300018469C60DC601C611C625C629E62DC6209
:102A40001E635C639C63DC635F619D615A60DA6155
:102A5000FDF754FE0FB0F0BD06480749312200F0E3
:102A600069FCC6E7A86200080C170020B417002014
:102A7000003802408C5E0008A45E000800B50379AF
:102A800001683B4A5BB285B01160252B14D8DFE8A2
:102A900003F06C696663605D5A57131313131313C5
:102AA00013135451131313131313131313134E4B04
:102AB0004845423F3C393617002005B05DF804FB1D
:102AC0000F2301930122022301A9294802920393B3
:102AD000FDF7F0FE2648FDF7B3FF25480A21FDF774
:102AE000ADFE0028E8D12248FDF7E0FE80B2C0F339
:102AF000032343EA001080B205B05DF804FB0E2307
:102B00000193DFE70D230193DCE70C230193D9E761
:102B10000B230193D6E70A230193D3E715230193EF
:102B2000D0E714230193CDE713230193CAE71223BF
:102B30000193C7E709230193C4E708230193C1E781
:102B400007230193BEE706230193BBE70523019307
:102B5000B8E704230193B5E703230193B2E7022307
:102B60000193AFE701230193ACE700230193A9E7A9
:102B7000B417002008B5072828D8DFE800F00B12AA
:102B8000192027272704144A1448D36943F0200347
:102B9000D36108BD104A1248D36943F00103D361E1
:102BA00008BD0D4A0F48D36943F00203D36108BD45
:102BB000094A0D48D36943F00403D36108BD064AAE
:102BC0000A48D36943F00803D36108BD084800F000
:102BD000EDFB002008BD00BF003802400014024099
:102BE000000002400004024000080240000C0240C5
:102BF000445F000870B5431C86B005460C461BD0E8
:102C0000C5F30310FFF7B6FF0E4A04F00F0152F8A8
:102C1000212005F00F050123AB40C4F30216032564
:102C2000C4F3C31401A90193029203960594049579
:102C3000FDF742FF06B070BD03480449592200F079
:102C400079FBDDE7105F0008685F00087C5F000823
:102C500038B5431C04460D4614D0C4F30310FFF7E7
:102C600089FF04F00F04C26864000323A34022EA32
:102C70000303C360022DC3688CBF0025A5401D431C
:102C8000C56038BD024803497E2200F053FBE4E7EB
:102C9000685F00087C5F0008F0B4114B046990F98C
:102CA000192007688668C568DC6044690021013224
:102CB0001F605E609D601C6199610AD0F0BC90F954
:102CC0001820074801320CBF04220C225A61FEF77B
:102CD00009BE08220248F0BC5A61FEF703BE00BFDD
:102CE0000418002070B5154D154C55F821300E46CE
:102CF000206053B10268510613D403689A0605D4C4
:102D000003681B0744BF0368436870BD0D4B55F84B
:102D100026001B680021984720686FF0200303609D
:102D2000EEE7084A184601211368984720686FF0BB
:102D30004003036003689A06E2D5E7E71417002012
:102D4000041800202817002001480021FFF7CABFFF
:102D50000038014001480121FFF7C4BF0044004092
:102D600001480221FFF7BEBF00480040014803218F
:102D7000FFF7B8BF004C004001480421FFF7B2BF85
:102D800000500040F8B504460E4608463D49154639
:102D900000F052FB3C490746284600F04DFB014637
:102DA000384600F037FB411C206059D0374B984221
:102DB00039D0374B98422ED0364B984245D1364ABF
:102DC0000221536A43F480235362616030462D49E7
:102DD00000F0FEFA28462C4900F0FAFA721C03D0E3
:102DE00030460121FFF734FF6B1C03D02846012138
:102DF000FFF72EFF00234FF41652A260E360236119
:102E00006361267665762046FFF746FF204B2268F1
:102E10009A4210D0F8BD204A0121536A43F400338E
:102E200053626160D2E71C4A0021136A43F4804375
:102E300013626160CAE7194B214601241C601848DF
:102E40001C22BDE8F84001F0CFB9164B98420ED1D4
:102E5000114A0321536A43F4002353626160B5E7CA
:102E600011481249502200F065FA20689EE7104B85
:102E70009842ABD1084A0421536A43F48013536249
:102E80006160A3E754620008006200080038014056
:102E90000044004000480040003802401017002065
:102EA00040180020004C0040E05F0008FC5F000874
:102EB000005000408160FFF7EFBE00BF10B4044B2C
:102EC00044680448196040F824205DF8044B7047BA
:102ED000281700201417002038B503682A482B4C07
:102EE0008342236032D02A48834219D02948834242
:102EF0003BD129482724BAB1DA68002930D142F001
:102F00002002DA6065B201462846FDF789F904F02F
:102F100017040123214A6D09A34042F8253038BD2A
:102F20001F482624002AE7D1DA6891B922F020024E
:102F3000DA60DB681A0617D46309012204F017046B
:102F400016492033A24041F8232038BD15482524D6
:102F5000D1E722F08002DA60DB689B06ECD538BD51
:102F600042F04002DA60CDE738BD0F48834202D11B
:102F70000E483024BFE70E4C0E48A3421ABF002073
:102F800000243124B7E700BF0038014004180020B6
:102F90000044004000480040612D000800E100E0CE
:102FA000552D0008492D0008004C00406D2D0008EB
:102FB00000500040792D0008026813689B06FCD57C
:102FC000024B50681A60C0B2704700BF041800205E
:102FD000026813681B06FCD5024BC9B251601A6027
:102FE000704700BF0418002038B500230360436019
:102FF0000A7804462F2A01D0204638BD4A78002A94
:10300000FAD0481C20604D782F2D13D085B103468F
:1030100000E06AB15D1A013323601A782F2AF8D1D3
:1030200029460133236000F073FB6060204638BD01
:103030002946F8E719460346F3E700BF00687047E2
:10304000436843B110B50446184600F07FFB0128E1
:1030500003D1606810BD00207047002010BD00BF84
:10306000406830B108B500F071FBB0FA80F040095B
:1030700008BD704743684BB110B50446184600F0D0
:1030800065FB28B9606818B1043810BD002070478E
:10309000002010BD4068003018BF0120704700BFFD
:1030A00000F076B8A0F15400FFF7FABF00F074B852
:1030B000A0F15400FFF7FABF38B504461D4600F0F2
:1030C00023F8294604F1540000F0A4F8054B2046EB
:1030D00003F1080103F12002543321606265A36506
:1030E00038BD00BF6860000801EB4101C90043180A
:1030F0005A6B1B6A2AB11BB1014424311846104790
:103100007047002BFCD0184770B504460E4E0023C4
:10311000251D4FF41650206563602846A360E360C8
:1031200023616361A3612377637723626363A3638E
:10313000E3642660FFF726FE284622460349FFF790
:10314000BDFE204670BD00BFD0600008E930000819
:1031500038B504460D460430FFF7ACFE256538BD92
:1031600070B40C4669B102EB4203DB002033C51892
:103170000026C15011466E610430012270BCFFF779
:10318000ABBE11460430224670BCFFF7A5BE00BF9F
:103190000430FFF711BF00BF10B50C460430FFF735
:1031A00017FF204610BD00BF00207047F8B58E18ED
:1031B000B1420F460ED005460C4601E0A64207D0AC
:1031C0002B6828465B6A14F8011B98470130F5D13B
:1031D000E01BF8BD0C46FBE7F8B58E18B1420F4670
:1031E0000ED005460C4603E004F8010BA64205D0BC
:1031F0002B6828469B6A9847431CF5D1E01BF8BD15
:103200000C46FBE700207047002070470020704705
:103210000020704710B5044684B000F009FA0B4B4B
:10322000002203F108013C3384E80A00626101A82E
:103230002246074901F05CFE064901A800F024FE81
:103240006061FDF705FA204604B010BDD8600008A3
:10325000BC5C00081C61000810B50446064B4069C0
:1032600003F108023C3384E80C0000F025FC204602
:1032700000F0F2F9204610BDD860000838B50D46C0
:103280000446406900F0CEFC28466169BDE838403C
:1032900000F058BE10B50446406900F0C3FC6069F8
:1032A000BDE81040FDF7D8B90EB430B5044682B081
:1032B00005AB53F8045B4069019300F0B3FC294669
:1032C0006069019A01F06EF902B0BDE8304003B0C8
:1032D000704700BF10B5044643684169194400F0C7
:1032E00059F8E36A3BB1A06920B104F11C01BDE8C3
:1032F0001040184710BDA369002BFBD0BDE810405B
:10330000184700BF10B5044600F04AF80023A36137
:10331000E36210BD38B50C46054600F041F86C611B
:10332000286900F027F901192846BDE8384000F067
:1033300031B800BF10B40C4613460146224602487D
:103340005DF8044B00F032B83461000803689B68F4
:10335000184700BF074A002310B580E80C008360BF
:10336000C360044600F084F80349206100F08AF845
:10337000204610BD706100084D33000810B50446AA
:10338000034B0069211D236000F0D0F8204610BDDA
:103390007061000803460A460069191D00F0A2B8D2
:1033A00001460069043100F0C1B800BF0FB400B598
:1033B000064A83B004AB53F8041B10681A46C06871
:1033C000019301F0EFF8012000F010FBAC010020A8
:1033D000431C10B5044619D091F90030581C04D193
:1033E0000FE011F90C3F5A1C0BD09C42F9D120463A
:1033F0008968FFF7FFFB2046BDE810400021FFF77A
:1034000027BC0348BDE81040FFF7D0BF10BD00BF88
:103410007C61000888420AD0421C09D0013106D0E4
:1034200008B50448FFF7C2FF4FF0FF3008BD7047F2
:103430000846704790610008421C0FD008B591F90A
:1034400000305A1C04D10AE011F90C3F5A1C06D076
:103450009842F9D14868411C01D008BD7047034823
:10346000FFF7A4FF4FF0FF30F7E700BFA4610008AB
:1034700000487047F8610008014800F00DB800BF2F
:10348000F861000838B504460D4603681B68984784
:1034900063681D6038BD00BF036870B5DB68054612
:1034A00098476B685B6883B12A681C6853689847C3
:1034B000201A00286A680DDC506811688368536020
:1034C0000029F0D040688847EBE72B68BDE87040E2
:1034D0009B6818472B6852681B691068BDE87040EC
:1034E000184700BF30B583B072B644680A6065689B
:1034F0004B608DB12B68D31A002B05DA0CE01C68E9
:10350000141B002C03DB1D46AB68002BF7D1A96010
:103510008B6062B603B030BD036861601B69104602
:10352000019198472B460199F2E700BF08B572B6A2
:1035300043685A688A4211D04AB193688B4208D0D6
:103540002BB19A688A4205D01346002BF9D162B696
:1035500008BD13468A689A6062B608BD92685A60D0
:10356000036822B110681B69984762B608BD9B6862
:103570009847ECE703685B68184700BF38B5054615
:1035800000F022F8044600F01FF8001BA842FAD30E
:1035900038BD00BF4FF47A7303FB00F0FFF7EEBFB6
:1035A000064B186800B1704710B40549054C01225C
:1035B0000C605DF8044B1A60FCF77ABE6C170020B3
:1035C00034170020000C0040084B186850B910B5A3
:1035D0000749084C01221A600C60FCF769FE054B94
:1035E000586A10BD034B586A704700BF6C17002023
:1035F00034170020000C0040034B1B685863DA6846
:1036000042F00202DA60704734170020034B1A6858
:10361000D36823F00203D360704700BF3417002043
:10362000024B6FF002021B681A61704734170020CA
:1036300010B50446064B002240F8043B00F054F855
:10364000044B204603F10802343384E80C0010BD1B
:10365000985C0008A863000810B50446064B03F107
:1036600008023433226040F8043F00F007F8204697
:10367000FCF794FE204610BDA8630008094A836841
:10368000026053B1084B1A68824201D106E01A4623
:1036900053688342FBD143685360704742681A60A5
:1036A000704700BFF0630008701700200C4A836861
:1036B00010B50446026053B10A4B1A68904201D11A
:1036C0000AE01A4653689C42FBD163685360204667
:1036D00002F0C4FA204610BD42681A60F7E700BF46
:1036E000F06300087017002010B4074C0023027329
:1036F00081600460436019B1044B1A68186042602D
:103700005DF8044B704700BFF0630008701700209D
:103710000D4B70B51C6806460D4614B911E064687F
:103720007CB1A0680028FAD031462A4601F085FC19
:103730000028F4D1A06801F078FCA842EFD120461F
:1037400070BD002070BD00BF70170020007B704767
:1037500080F0004002E000BF81F0004142001FBF46
:103760005FEA410392EA030F7FEA226C7FEA236C4F
:103770006AD04FEA1262D2EB1363C1BFD218414044
:1037800048404140B8BF5B42192B88BF704710F0DA
:10379000004F40F4000020F07F4018BF404211F07D
:1037A000004F41F4000121F07F4118BF494292EAE5
:1037B000030F3FD0A2F1010241FA03FC10EB0C0011
:1037C000C3F1200301FA03F100F0004302D549429E
:1037D00060EB4000B0F5000F13D3B0F1807F06D34B
:1037E00040084FEA310102F10102FE2A51D2B1F143
:1037F000004F40EBC25008BF20F0010040EA030038
:103800007047490040EB000010F4000FA2F10102E4
:10381000EDD1B0FA80FCACF1080CB2EB0C0200FA6E
:103820000CF0AABF00EBC25052421843BCBFD040BC
:103830001843704792F0000F81F4000106BF80F436
:1038400000000132013BB5E74FEA41037FEA226CF9
:1038500018BF7FEA236C21D092EA030F04D092F0C4
:10386000000F08BF0846704790EA010F1CBF0020F8
:10387000704712F07F4F04D1400028BF40F0004055
:10388000704712F100723CBF00F50000704700F075
:10389000004343F0FE4040F4000070477FEA22629C
:1038A00016BF08467FEA23630146420206BF5FEA6D
:1038B000412390EA010F40F4800070474FF000036D
:1038C00004E000BF10F0004348BF40425FEA000C34
:1038D00008BF704743F0964301464FF000001CE0DC
:1038E00050EA010208BF70474FF000030AE000BF32
:1038F00050EA010208BF704711F0004302D5404270
:1039000061EB41015FEA010C02BF844601460020E1
:1039100043F0B64308BFA3F18053A3F50003BCFAFC
:103920008CF2083AA3EBC25310DB01FA02FC6344A9
:1039300000FA02FCC2F12002BCF1004F20FA02F2B0
:1039400043EB020008BF20F00100704702F12002A3
:1039500001FA02FCC2F1200250EA4C0021FA02F204
:1039600043EB020008BF20EADC7070474FEA4002D8
:10397000B2F1FE4F0FD34FF09E03B3EB12620DD99D
:103980004FEA002343F0004310F0004F23FA02F007
:1039900018BF404270474FF00000704712F1610FAE
:1039A00001D1420205D110F0004008BF6FF0004085
:1039B00070474FF00000704703460846194600F074
:1039C00001B8000038B5054604480C46134620B13E
:1039D000022029462246AFF3008038BD00000000D7
:1039E000014B1868704700BFAC01002008B5074BB9
:1039F000044613B10021AFF30080054B1868836AB9
:103A000003B198472046FCF711FE00BF00000000FC
:103A10005C65000870B505460C4609B9002070BD0C
:103A200018B183690BB900F083F9204B9C4201D196
:103A30006C6808E01E4B9C4201D1AC6803E01D4B52
:103A40009C4208BFEC68B4F90C30002BE6D0284645
:103A5000214600F039F8236B064633B12846216A27
:103A600098470028B8BF4FF0FF36A3891B0603D53F
:103A70002846216900F0CCFB616B41B104F144039D
:103A8000994202D0284600F0C3FB00236363A16C77
:103A900021B1284600F0BCFB0023A36400F0B2F97A
:103AA0000023A38100F0AFF9304670BDFC6400082C
:103AB0001C6500083C650008024B01461868FFF7CA
:103AC000A9BF00BFAC0100208A892DE9F04105465D
:103AD00010070C4657D44B68002B02DC0B6C002BF4
:103AE00018DDE66AB6B102F48052002392B22F6864
:103AF0002B600AB1626D10E0216A28460123B047AD
:103B0000411C024609D12B683BB11D2B01D0162B5D
:103B100046D12F600020BDE8F081A3895B0705D561
:103B20006368D21A636B0BB1236CD21AE66A002366
:103B30002846216AB047461CA38905D12A681AB1D4
:103B40001D2A01D0162A19D1002262602269D904E7
:103B5000226004D5421C01D12B6803B96065616BFA
:103B60002F600029D6D004F14403994202D02846A0
:103B700000F04EFB00206063BDE8F08143F040039D
:103B8000A381BDE8F0810F69002FC3D093070E68B1
:103B90000CBF4B690023C7EB06080F608B6012E077
:103BA000A3894FF0FF3043F04003A381BDE8F081CB
:103BB0002846216A3A464346A66AB0470028EFDD08
:103BC0000744C0EB0808B8F1000FF1DCA2E70000E1
:103BD00038B50B6905460C46DBB118B183690BB9E2
:103BE00000F0A6F80C4B9C4201D16C6808E00B4B2E
:103BF0009C4201D1AC6803E0094B9C4208BFEC68D1
:103C0000B4F90C302BB128462146BDE83840FFF707
:103C10005BBF002038BD00BFFC6400081C650008C5
:103C20003C650008014620B9044B0549186800F0BE
:103C30003DBA044B1868FFF7CBBF00BF5C650008B6
:103C4000D13B0008AC01002038B50C46054618B140
:103C500083690BB900F06CF80E4B9C4201D16C6883
:103C600008E00D4B9C4201D1AC6803E00B4B9C4239
:103C700008BFEC686368013B002B636005DA2846E7
:103C80002146BDE8384001F035B823685A1C22604F
:103C9000187838BDFC6400081C6500083C65000805
:103CA000024B01461868FFF7CFBF00BFAC010020F0
:103CB000014900F0FBB900BFD13B000810B5044634
:103CC000002303604360836081814366C281036196
:103CD0004361836119465C30082200F090FA054B7D
:103CE00024626362044BA362044BE362044B2363CC
:103CF00010BD00BF8D4F0008B34F0008EB4F000808
:103D00000F50000870B568234D1E5D430E4605F147
:103D1000740100F0C1FA044640B1002180E842007D
:103D20000C30A06005F1680200F069FA204670BD11
:103D3000836910B5044633BB8364C3640365124BC7
:103D4000124A1B688262984204BF0123836100F01B
:103D50001FF86060204600F01BF8A060204600F0CD
:103D600017F80421E06000226068FFF7A7FFA06851
:103D700009210122FFF7A2FFE06812210222FFF7CA
:103D80009DFF0123A36110BD5C650008B13C0008E4
:103D9000F8B51B4B07461E68B36913B93046FFF7E9
:103DA000C7FF4836B4687368013B04D4B4F90C50BB
:103DB00075B16834F8E733682BB938460421FFF74A
:103DC000A1FF306008B13668ECE70C233B60F8BD1A
:103DD0004FF6FF73E3810123A38165662560A5602B
:103DE000656025616561A56104F15C0029460822D2
:103DF00000F005FA6563A563A564E5642046F8BD97
:103E00005C65000870477047F7B50F46114601AA78
:103E1000054601F057FB064608B9002029E0284670
:103E2000FFF7B6FF04460028F7D028463946019A26
:103E30004FF4DB7300F0A4FE002806DA0025FFF73C
:103E4000E1FFA581FFF7DFFFE7E70B4BE08163624E
:103E50000A4BA681A3620A4B2462E362094B2363E7
:103E6000F30505D5284621460022022300F074F808
:103E7000204603B0F0BD00BF8D4F0008B34F0008CF
:103E8000EB4F00080F50000803460A460249086835
:103E90001946FFF7B9BF00BFAC01002070B50D4651
:103EA0001446064618B183690BB9FFF741FF224B50
:103EB0009C4201D1746808E0204B9C4201D1B46857
:103EC00003E01F4B9C4208BFF468A3891A0701D581
:103ED00023699BB93046214601F078FA70B14FF062
:103EE000FF3070BDA368013B002BA3600BDB236890
:103EF00015F8012C1A7023680133236015F8010BA3
:103F00000028EFD116E0A269934209DB236815F877
:103F1000012C1A70236819780A29EDD1304602E085
:103F2000304615F8011C224601F0EAF9431C5842BC
:103F30005841D3E770BD00BFFC6400081C65000851
:103F40003C65000803460A46024908681946FFF71F
:103F5000A5BF00BFAC01002000F000B82DE9F84378
:103F60000C4690461E46054618B183690BB9FFF70B
:103F7000DFFE3D4B9C4201D16C6808E03B4B9C420C
:103F800001D1AC6803E03A4B9C4208BFEC68A389BE
:103F900003F48473B3F5847F03D128462146FFF7E9
:103FA00017FEE76A0FB91D232BE0012E04D0022E65
:103FB0002BD056B3162324E028462146FFF708FEEF
:103FC000A28902F4805292B20AB1606D05E0216AC2
:103FD00028463346B847411C14D0A3895A0706D552
:103FE0006368C01A636B4BB1236CC01A06E01B07F1
:103FF00004D5236813B122699B1A18448044002613
:1040000003E02B604FF0FF392BE023691BB92846F2
:10401000214600F08FF828462146FFF7D9FD81465A
:104020000028EFD12846216A42463346B84701307E
:10403000E8D0616B41B104F14403994202D02846B3
:1040400000F0E6F800236363236900212360A3895D
:10405000616023F40263A38104F15C00082200F094
:10406000CEF84846BDE8F883FC6400081C650008EB
:104070003C6500082DE9F041884600F1480400261F
:104080008CB1A5686768013F0BD4AB89012B06D9B9
:10409000B5F90E30013302D02846C04706436835D3
:1040A000F1E72468ECE73046BDE8F0812DE9F843FC
:1040B0008046894600F14804002694B1A5686768E7
:1040C000013F0CD4AB89012B07D9B5F90E30013370
:1040D00003D040462946C84706436835F0E72468C0
:1040E000EBE73046BDE8F8830E4B70B51E460E4C2C
:1040F0000025E41AA410A54204D056F825309847AC
:104100000135F8E701F0ACFD084B094C1E46E41AF6
:10411000A4100025A54204D056F825309847013553
:10412000F8E770BDB0010020B0010020B001002010
:10413000C0010020F0B58B8991B09D0706460C4662
:1041400025D4B1F90E10002908DAA389002513F04F
:10415000800F14BF40274FF480670DE001AA01F0E3
:10416000E9F90028F1DB029D4FF4806705F4704502
:10417000A5F500514D424D413046394600F08CF8CE
:1041800060B9A3899A051DD443F00203A38104F109
:104190004703236023610123636113E00A4BB36289
:1041A000A389206043F08003A381206167614DB142
:1041B0003046B4F90E1001F0CFF918B1A38943F0DD
:1041C0000103A38111B0F0BDB13C000810B5C9B224
:1041D00002449042034605D01C7801308C42F8D14D
:1041E000184610BD002010BD10B5431E0A44914270
:1041F00004D011F8014B03F8014FF8E710BD034656
:104200000244934202D003F8011BFAE77047000012
:1042100030B500293CD051F8042C0B1F1D49002A51
:10422000B8BF9B180A680C4612B95A600B6030BDC3
:1042300093420DD219685818904201BF5A5852182B
:104240001A60426823605A6030BD994203D80A461A
:1042500051680029F9D1146815199D420AD11B68CB
:104260002344D0188842136012D1086803441360B5
:104270004B680CE002D90C23036030BD1C68181990
:10428000884201BF08684968001918605960536086
:1042900030BD00BF7817002070B5CC1C24F003049B
:1042A00008340C2C38BF0C24002C064603DA0C23EF
:1042B0003360002070BD8C42F9D3204A1368104649
:1042C0001946A1B10A68121B0ED40B2A03D90A6041
:1042D0008B188C501FE08B420BBF5A684A680260F3
:1042E0005A6018BF0B4616E00B464968E9E7144DC3
:1042F0002B681BB9304600F029FD28603046214666
:1043000000F024FD421C0346D1D0C51C25F0030556
:1043100085420AD11C6003F10B001A1D20F0070032
:10432000821A0AD05142995070BD3046E91A00F005
:104330000DFD0130BBD02B46ECE770BD7817002097
:1043400074170020936810B5013B002B936009DAC5
:104350009469A34202DBCBB20A2B03D1BDE8104023
:1043600000F0CEBF1368581C10601970C8B210BDA1
:10437000F8B506460F461446D518AC4208D030466C
:1043800014F8011B3A46FFF7DDFF431CF5D100E0AE
:104390000020F8BD2DE9F0439DB00D4690460393F3
:1043A000064618B183690BB9FFF7C2FC754B9D42F5
:1043B00001D1756808E0744B9D4201D1B56803E0F6
:1043C000724B9D4208BFF568AB891C070AD52B6963
:1043D00043B10023099320238DF8293030238DF831
:1043E0002A3041E03046294600F0F0FF0028F0D0A6
:1043F0004FF0FF30C2E0039A0134111D126803919F
:10440000002ABBBF524243F0020307920792B8BF93
:10441000049323782E2B7BD0DFF8808121784046CF
:104420000322FFF7D3FE38B1049AC8EB0000402303
:10443000834013430493013421785548062204F144
:1044400001088DF82810FFF7C1FE002800F08580D4
:10445000504B002B78D1039B073323F0070308331D
:104460000393099B3B44099343461C4613F8012BD5
:104470001AB9B4EB08090ED002E0252AF5D1F8E705
:104480003046294642464B46FFF772FF013070D056
:10449000099B4B4409932378002B6AD000234FF0EB
:1044A000FF3204930793059206938DF853301A93C5
:1044B00004F101084446DFF8E890217848460522D7
:1044C000FFF784FE08F10108049B30B1C9EB00003E
:1044D0000122824013430493ECE7D80644BF202214
:1044E0008DF85320190744BF2B228DF853202278D2
:1044F0002A2A80D0234607991C4622780133303A75
:10450000092A03D80A2000FB0121F5E7079180E77B
:1045100063782A2B0AD1039B02341A1D1B6803926D
:10452000002BB8BF4FF0FF33059375E7611C0022E5
:104530000C4623780131303B092B03D80A2000FBBD
:104540000232F5E7059267E703AB0093304604A912
:104550002A46114BAFF3008007E003AB00933046CF
:1045600004A92A460C4B00F0A1F8421C07467FF430
:1045700078AFAB895B063FF53BAF09981DB0BDE84E
:10458000F08300BFFC6400081C6500083C6500085F
:104590006A650008000000007143000866650008B5
:1045A0006065000830B505460C461346034A2946A7
:1045B00010682246BDE83040FFF7ECBEAC01002099
:1045C0002DE9F84391461F468A680B6906469342D7
:1045D000B8BF1346C9F8003091F843200C46DDF807
:1045E000208012B10133C9F800302368990642BF18
:1045F000D9F800300233C9F80030256815F00605F7
:104600001CD094F843302268003318BF012392066F
:104610001FD5E118302081F843005A1C94F845104A
:104620002244023382F8431013E03046394604F145
:1046300019020123C047013007D00135E368D9F8DA
:1046400000209B1A9D42F0DBDBE74FF0FF30BDE816
:10465000F8833046394604F14302C0470130F4D0B4
:104660002268D9F80050E36802F00602042A08BF65
:104670005D1B2269A3680CBF25EAE57500259342FE
:10468000C4BF9B1AED184FF00009A9450ADA30465D
:10469000394604F11A020123C0470130D5D009F18F
:1046A0000109F2E70020BDE8F88300002DE9FF4191
:1046B0000C461746227E98466E2A06460A9B01F152
:1046C000430100F0AA8012D8632A23D00AD8002A16
:1046D00000F0B780582A40F0C68084F84520DFF803
:1046E000F8E151E0642A1ED0692A1CD0BBE0732A8D
:1046F00000F0AB8009D86F2A2BD0702A40F0B3802D
:10470000226842F02002226039E0752A21D0782AFE
:1047100035D0A8E01A6804F14205111D196013682C
:1047200084F84230A3E020681A6810F0800F03D0AC
:10473000101D1860136805E04506F9D5101D1860B6
:10474000B2F90030002B3BDA2D225B4284F8432083
:1047500036E020681A6810F0800F03D0101D186032
:10476000136804E04006F9D5101D18601388227EF6
:10477000DFF864E16F2A0CBF08220A221CE07822CD
:10478000DFF858E184F845202268186812F0800F9D
:1047900000F104051D6001D0036802E05506FBD559
:1047A0000388D00744BF42F0200222601BB9226870
:1047B00022F0200222601022002084F8430002E050
:1047C000DFF814E10A226568002DA8BF2068A56003
:1047D000A4BF20F00400206003B965B10D46B3FB0F
:1047E000F2F002FB10331EF8033005F8013D0346DA
:1047F0000028F4D100E00D46082A0BD12368DA071F
:1048000008D5236962689A42DEBF302305F8013C6F
:1048100005F1FF35491B21612EE025681A6815F066
:10482000800F606903D0151D1D60136808E015F046
:10483000400F02F104051D60136801D0188000E0EC
:104840001860002323610D4616E01A68111D1960D7
:104850001568002128466268FFF7B8FC08B1401BC4
:104860006060636804E004F1420584F8422001239B
:104870002361002384F84330CDF800803046214680
:1048800003AA3B46FFF79CFE013002D14FF0FF30F8
:104890001FE0304639462A462369C0470130F5D02B
:1048A00023689B0705D4E068039B9842B8BF18466D
:1048B0000FE00025E368039A9B1A9D42F3DA304625
:1048C000394604F119020123C0470130DED0013519
:1048D000F0E704B0BDE8F08171650008826500086A
:1048E0002DE9F04115468A6880460C4632B98A693E
:1048F000002A0CBF01224FF0FF328A602268002696
:10490000D1065FBF1A68111D19601768A069F8B950
:1049100023680136DA065EBF2B681B783B702A6875
:104920006B6802F101022A60A26803F1FF3302F111
:10493000FF326B6058BF0137A260EAB1002BE5DCA3
:10494000D4F880314046294698470028DED013E04D
:10495000012807D12B6862691B78D35C002BD7D163
:10496000C6B109E0022807D12B680B4A1B781268F0
:1049700013445B781B07CBD5236813F0100305D1D4
:10498000E2680132E260A26902B13B702369002053
:104990001E442661BDE8F081480100202DE9F04F5A
:1049A0000C469A46724B87B08346164693E807003A
:1049B00003AB83E807006F4BA1696F4A04F11C0940
:1049C000032918BF1A46A36800925A1EB2F5AE7F9B
:1049D00082BF6FF4AE7503EB050840F25D134F46DE
:1049E00088BFA360236898BF4FF0000843F450636A
:1049F00023600023326803A951F8230011780222B2
:104A00000193FFF7E3FB019B002835D0012B0BD16D
:104A100062682AB908226260226842F40072226049
:104A2000226822F4A0620BE0022B0AD1226802F471
:104A3000C061B1F5007F1FD11021616042F4807226
:104A40002260A268511EA160B2B132687D1C511C67
:104A5000316012783A707268013A002A72600ADC9A
:104A6000D4F880215846314601939047002841D11F
:104A70002F46019B00E02F460133032BBAD1636818
:104A80000BB90A23636063683C496069C91A00F086
:104A90006DF93D460027A3686BB3316860690A78F9
:104AA000805C40B3302A22680AD1100508D501374E
:104AB000B8F1000F0BD0013308F1FF38A36006E016
:104AC00022F4106222600B78013505F8013C73680E
:104AD000013B002B736003DD33680133336005E075
:104AE000D4F8803158463146984720B9A368013B35
:104AF000A360D0E700272368D9050DD54D4509D916
:104B000015F8011C05F1FF38D4F87C3158463246BF
:104B1000984745464D4527D0226812F010021BD118
:104B20002A70636858464946009EB0472268DAF802
:104B3000003012F0200F07D1D20705D51A1DCAF890
:104B400000201B68188004E01A1DCAF800201B68AA
:104B50001860E3680133E360C9EB05053D4427694C
:104B600000203D44256100E0012007B0BDE8F08F42
:104B700094650008955100086D500008B065000864
:104B800038B5074C054600202060084611461A46F5
:104B9000FBF71AFC431C02D1236803B12B6038BD1C
:104BA0005C1800200FB40A4B13B51C6824B1A3692C
:104BB00013B92046FFF7BCF805AB2046A168049A5C
:104BC0000193FFF7E7FB02B0BDE8104004B0704767
:104BD000AC010020838903F00903092B01D1FFF701
:104BE00021B8002070470000F8B50C46054618B102
:104BF00083690BB9FFF79CF8394B9C4201D16C6873
:104C000008E0384B9C4201D1AC6803E0364B9C4233
:104C100008BFEC68A2890023636093B29E065AD451
:104C200058071AD4D90605D4092342F040022B6054
:104C3000A28150E01A070BD528462146FEF7C8FF8F
:104C4000002848D1A389A06023F00803A381A061B4
:104C5000A38943F00403A38110E0616B71B104F1F7
:104C60004403994202D02846FFF7D2FA236C002071
:104C70006063636013B1E36B2360F8BD23691BB904
:104C800028462146FFF756FAA789BEB2B3070FD0D0
:104C90000123A381154B1649186806F00906FFF792
:104CA000E9F9092EA78103D128462146FEF70CFF1A
:104CB0002269666A22602846216A6369B047002833
:104CC00060600BDCA38917BF002243F0200343F090
:104CD00040036260A3814FF0FF30F8BD0020F8BDB3
:104CE000FC6400081C6500083C6500085C65000861
:104CF000D54B000838B50C46054618B183690BB989
:104D0000FFF716F80E4B9C4201D16C6808E00D4B82
:104D10009C4201D1AC6803E00B4B9C4208BFEC689D
:104D200028462146FFF760FF38B96368013B63609E
:104D300023685A1C2260187838BD4FF0FF3038BD08
:104D4000FC6400081C6500083C65000838B5064C8A
:104D50000023054608462360FBF754FC431C02D1A0
:104D6000236803B12B6038BD5C180020F0B50A78C9
:104D7000441E5E2A13BF4B1C8B1C4A78002108BFBF
:104D8000012100F1FF0504F8011FAC42FBD10AB973
:104D9000581EF0BDC1F10104E7B2875419785E1CBA
:104DA0002D2905D05D290ED079B10A463346F3E7A7
:104DB0005D785D2DF9D09542F7DB02330132AA42CE
:104DC0008754FBDBEAE73046F0BD1846F0BD00290A
:104DD0000CBF022200224FF4806300F001B80000F3
:104DE0002DE9F0411D463D4B04461E680F46904696
:104DF00026B1B36913B93046FEF79AFF384B9C428F
:104E000001D1746808E0374B9C4201D1B46803E0DB
:104E1000354B9C4208BFF468B8F1020F5AD8002DF8
:104E200058DB30462146FEF7D3FE00236360A361C2
:104E3000A3891B0603D530462169FFF7E9F9A38949
:104E4000B8F1020F23F08303A38112D037BB002DEA
:104E500008BF4FF48065284600F0A0FB0746C8B99C
:104E60004FF4806000F09AFB074688B94FF0FF309E
:104E700000E00020A38943F00203A3810023A36084
:104E800004F147032360236101236361BDE8F081DE
:104E90004FF48065A38943F08003A381B8F1010F2B
:104EA00001BFA38943F00103A3816B4208BFA36143
:104EB0000E4BB362A389276003F0080080B227611C
:104EC000656148B113F0030F18BF0025A5600020ED
:104ED000BDE8F0814FF0FF30BDE8F081AC0100206B
:104EE000FC6400081C6500083C650008B13C000833
:104EF0000EB400B54FF402719CB0ADF814106FF011
:104F00000041049107914FF6FF711DABADF81610EB
:104F1000084953F8042B02900690086802A90193EF
:104F200000F0E6FB029B00221A701CB05DF804EB57
:104F300003B07047AC0100200EB430B59CB01FAC7C
:104F40004FF4017254F8045BADF8142002900690FF
:104F500000F06BF80B4B03900B9300230F9314930B
:104F60004FF6FF73ADF81630074B079002A918688B
:104F70002A462346019400F007FD1CB0BDE83040EE
:104F800003B07047AF4F0008AC01002010B50C46CD
:104F9000B1F90E1000F046FE0028ABBF636DA38987
:104FA0001B1823F48053ACBF6365A38110BD0020A0
:104FB00070472DE9F0411D468B890746DB050C46FD
:104FC000164605D5B1F90E100022022300F0D4FADE
:104FD000A389384623F48053A381B4F90E103246D6
:104FE0002B46BDE8F04100F0DFB910B50C46B1F931
:104FF0000E1000F0C1FA431CA38915BF606523F4AD
:10500000805343F48053A38118BFA38110BDB1F92D
:105010000E1000F047BA10F8012B11F8013B012ADD
:1050200028BF9A42F7D0D01A7047034613F8012BD5
:10503000002AFBD1181A0138704770B5A2B1451E7D
:1050400001396B7811F8014F6E1CA34206D16FF045
:105050000104641B1444E04202D11C46181B70BDBD
:105060003546002BEDD1F8E7104670BD2DE9F0472D
:105070000F46404CD4F800903D4615F801EB09EB83
:105080000E04667806F0080404F0FF060CB12F4603
:10509000F2E774462D2C03D1BD1C7C78012603E079
:1050A0002B2C04BF7C78BD1C13B1102B0AD15AE005
:1050B000302C56D12C7804F0DF04582C4CD16C786D
:1050C00010230235002E14BF4FF000486FF0004847
:1050D000B8FBF3FA0027BE4603FB1A8809EB040C61
:1050E0009CF801C01CF0040F01D0303C0BE01CF018
:1050F000030C1BD0BCF1010F0CBF4FF0370C4FF06D
:10510000570CCCEB04049C4210DAB7F1FF3F0AD0F5
:10511000D64506D801D1444503DC03FB0E4E0127DA
:1051200001E04FF0FF3715F8014BD7E77C1C7346C1
:105130000AD1002E4FF0220114BF4FF000436FF050
:10514000004301602AB911E00EB1CEF100036AB14B
:1051500007B1691E116009E03024002BB2D1082389
:10516000B0E70A23AEE7302CACD1A3E71846BDE880
:10517000F08700BF4801002030B505460C461346B5
:10518000034A294610682246BDE83040FFF76EBF4B
:10519000AC0100202DE9F0470E463B4CD4F80090BE
:1051A000354615F801EB09EB0E04677807F00804A3
:1051B00004F0FF070CB12E46F2E774462D2C03D104
:1051C000B51C7478012703E02B2C04BF7478B51C40
:1051D00013B1102B0AD151E0302C4DD12C7804F0B2
:1051E000DF04582C43D16C78102302354FF0FF3880
:1051F000B8FBF3F803FB08FA00266FEA0A0AB64682
:1052000009EB040C9CF801C01CF0040F01D0303CE9
:105210000BE01CF0030C1BD0BCF1010F0CBF4FF0D6
:10522000370C4FF0570CCCEB04049C4210DAB6F16B
:10523000FF3F0AD0C64506D801D1544503DC03FB25
:105240000E4E012601E04FF0FF3615F8014BD7E76F
:10525000741C734603D122230360334602E00FB16E
:10526000CEF100036AB106B1691E116009E0302475
:10527000002BBBD10823B9E70A23B7E7302CB5D1FF
:10528000ACE71846BDE8F087480100202DE9F04161
:105290000C46496B04F1440399421AD14FF48061E2
:1052A000FEF7FAFF18B94FF0FF30BDE8F0814FF478
:1052B0008063A36394F84630606380F8FF3394F80A
:1052C000453000F2FD30437094F8443003702060A4
:1052D00012E0A66B77003A4600F08BF905460028ED
:1052E000E1D000EB0608404629463246FEF77CFF37
:1052F000C4F800806563A7630020BDE8F08100006A
:1053000070B50D461446064618B183690BB9FEF711
:105310000FFD224B9C4201D1746808E0204B9C4257
:1053200001D1B46803E01F4B9C4208BFF468A36935
:10533000A360A3891A0709D523693BB123682069B3
:10534000EDB2181A636998420FDB08E03046214637
:1053500000F03CF80028F1D04FF0FF3070BD30462F
:105360002146FEF735FC0028F6D1A3680130013B49
:10537000A36023685A1C22601D706369984204D0A0
:10538000A389DB0707D50A2D05D130462146FEF754
:105390001FFC0028E0D1284670BD00BFFC64000857
:1053A0001C6500083C65000838B5074C0546002020
:1053B0002060084611461A46FBF798F8431C02D1B4
:1053C000236803B12B6038BD5C180020314B70B5E9
:1053D0001D6806460C4625B1AB6913B92846FEF791
:1053E000A7FC2D4B9C4201D16C6808E02B4B9C42E2
:1053F00001D1AC6803E02A4B9C4208BFEC68A3894A
:105400009AB211071DD4D50602D40922326038E0C1
:10541000500712D5616B41B104F14403994202D0A7
:105420003046FEF7F5FE00236363A38923F02403CF
:10543000A3810023636023692360A38943F00803E9
:10544000A38123694BB9A38903F42073B3F5007FCB
:1054500003D030462146FEF76DFEA38913F001020A
:1054600005D00022A26062695242A26103E099075E
:1054700058BF6269A26022694AB903F0800080B215
:1054800030B143F04003A3814FF0FF3070BD0020E6
:1054900070BD00BFAC010020FC6400081C65000862
:1054A0003C65000838B5064C0023054608462360D5
:1054B000FBF708F8431C02D1236803B12B6038BD09
:1054C0005C1800200B7830B5722B0ED0772B07D0EC
:1054D000612B0ED14FF4027401234FF484701AE053
:1054E0004FF4C0640123082015E000242346042063
:1054F00011E016230360002030BD622D10D0782DFE
:1055000011D02B2D07D120F01C0023F0030340F015
:10551000100043F0020311F8015F002DEDD105E00A
:1055200043F48033F7E743F40063F4E72343136065
:1055300030BD000038B5074C00230546084611462B
:105540002360FBF73FF8431C02D1236803B12B60B3
:1055500038BD00BF5C18002038B5064C0023054656
:1055600008462360FBF70AF8431C02D1236803B105
:105570002B6038BD5C18002038B5074C054600206C
:105580002060084611461A46FBF70AF8431C02D170
:10559000236803B12B6038BD5C180020024B014624
:1055A0001868FEF779BE00BFAC010020024B01462F
:1055B0001868FEF72DBE00BFAC010020814210B577
:1055C00001EB020301D3421E0BE09842FBD281188B
:1055D000D21AD34204D013F8014D01F8014DF8E777
:1055E00010BD994204D011F8014B02F8014FF8E7C1
:1055F00010BDF8B5074615460E4621B91146BDE85F
:10560000F840FEF749BE1AB9FEF702FE2846F8BD7B
:1056100000F01AFBA8420ED238462946FEF73CFE9F
:10562000044650B131462A46FEF7DEFD3846314683
:10563000FEF7EEFD01E03046F8BD2046F8BD2DE94D
:10564000F0478E688246B3420C469046994640D356
:105650008A8912F4906F3AD02568096902236F1A7B
:10566000656905EB450595FBF3F57B1C4B449D42B5
:1056700038BF1D4653050FD52946FEF70DFE0646D9
:1056800098B121693A46FEF7AFFDA38923F49063F0
:1056900043F08003A38113E02A46FFF7AAFF0646E2
:1056A00070B950462169FEF7B3FD0C23CAF80030EB
:1056B000A3894FF0FF3043F04003A381BDE8F0879A
:1056C00026613E4426604E466561ED1BA560B145EE
:1056D00000D24E46324620684146FFF76FFFA3686E
:1056E00000209B1BA36023681E442660BDE8F08752
:1056F0002DE9F0439DB003938B8906461C060D46A9
:1057000090460CD50B6953B94021FEF7C5FD2860C2
:10571000286110B90C233360CCE040236B61002377
:10572000099320238DF8293030238DF82A30434601
:105730001C4613F8012B1AB9B4EB08090FD002E08C
:10574000252AF5D1F8E73046294642464B46FFF771
:1057500076FF013000F0A980099B4B440993237820
:10576000002B00F0A28000234FF0FF320493079338
:10577000059206938DF853301A9304F101084446BC
:10578000DFF84891217848460522FEF71FFD08F111
:105790000108049B30B1C9EB000001228240134391
:1057A0000493ECE7D80644BF20228DF85320190754
:1057B00044BF2B228DF8532022782A2A02D0079941
:1057C00023460EE0039A0134111D12680391002A4A
:1057D000BBBF524243F0020307920792B8BF049343
:1057E0000AE01C4622780133303A092A03D80A20FD
:1057F00000FB0121F5E7079123782E2B1AD163785E
:105800002A2B0AD1039B02341A1D1B680392002B1A
:10581000B8BF4FF0FF3305930CE0611C00220C462B
:1058200023780131303B092B03D80A2000FB0232D8
:10583000F5E70592DFF89880217840460322FEF7CD
:10584000C5FC38B1049AC8EB0000402383401343E1
:105850000493013421781A48062204F101088DF8D6
:105860002810FEF7B3FC88B1164B33B9039B0733FE
:1058700023F007030833039313E003AB0093304690
:1058800004A92A46104BAFF3008007E003AB009356
:10589000304604A92A460C4BFEF708FF421C074677
:1058A00003D0099B3B44099341E7AB895B0601D4D4
:1058B000099801E04FF0FF301DB0BDE8F08300BF54
:1058C0006A650008000000003F5600086065000897
:1058D0006665000838B54B1C144602D14FF0FF3006
:1058E00038BD9389CDB223F020039381536B526866
:1058F00083B1A36B9A4207DA23685A1E226003F829
:10590000015C636801331FE02146FFF7BFFC0028FC
:10591000F2D0E3E72169236851B18B4208D913F82B
:10592000010CA84204D1013B01322360626038BD02
:10593000E36304F1440363630323A3632346226404
:1059400003F8465F236001236360284638BD10B525
:105950000C46496B69B104F14403994201D0FEF74A
:1059600057FC236C00206063636013B1E36B23601A
:1059700010BD23694FF0FF30236000236360A389CB
:1059800043F02003A38110BD2DE9F04707460C46E4
:105990009046ADF5247D01930023469347939C4B9D
:1059A0000DF10C0AA2939B4BCDF820A1A39398F87C
:1059B0000050002D00F0248197490B6889462B4444
:1059C0005B7803F0080303F0FF02EBB16368002B80
:1059D00010DD2368D9F800101A780A4452781507A8
:1059E0000ED5479A01330132479262682360013A2B
:1059F0006260EBE7A39B3846214698470028E8D031
:105A000008F10106B046D2E7252D08F101064FD175
:105A10004592439298F801302A2B03D110234393E7
:105A200008F1020631783546A1F13003092B06F161
:105A3000010606D8459B0A2202FB0313303B45931F
:105A4000F0E7DFF8DC8103224046FEF7BFFB40B100
:105A500035460123C8EB000003FA00F2439B1343D1
:105A600043936E1C2D78672D0FD8652D78D25B2D52
:105A700054D005D8002D00F0C580252D18D071E038
:105A8000632D57D0642D3FD06CE0702D32D007D8F5
:105A90006E2D55D03AD8692D64D1002344933BE054
:105AA000752D31D0782D29D0732D5BD102233FE0A5
:105AB0006368002B0DDD23681A78AA4240F0A080AD
:105AC000013362682360479B013A01336260479368
:105AD00098E7A39B3846214698470028EBD0469884
